{
  "_format": "hh-sol-artifact-1",
  "contractName": "CryptoSurvey",
  "sourceName": "contracts/CryptoSurvey.sol",
  "abi": [
    {
      "inputs": [],
      "stateMutability": "nonpayable",
      "type": "constructor"
    },
    {
      "inputs": [],
      "name": "AccessControlBadConfirmation",
      "type": "error"
    },
    {
      "inputs": [
        {
          "internalType": "address",
          "name": "account",
          "type": "address"
        },
        {
          "internalType": "bytes32",
          "name": "neededRole",
          "type": "bytes32"
        }
      ],
      "name": "AccessControlUnauthorizedAccount",
      "type": "error"
    },
    {
      "inputs": [
        {
          "internalType": "address",
          "name": "sender",
          "type": "address"
        },
        {
          "internalType": "uint256",
          "name": "balance",
          "type": "uint256"
        },
        {
          "internalType": "uint256",
          "name": "needed",
          "type": "uint256"
        },
        {
          "internalType": "uint256",
          "name": "tokenId",
          "type": "uint256"
        }
      ],
      "name": "ERC1155InsufficientBalance",
      "type": "error"
    },
    {
      "inputs": [
        {
          "internalType": "address",
          "name": "approver",
          "type": "address"
        }
      ],
      "name": "ERC1155InvalidApprover",
      "type": "error"
    },
    {
      "inputs": [
        {
          "internalType": "uint256",
          "name": "idsLength",
          "type": "uint256"
        },
        {
          "internalType": "uint256",
          "name": "valuesLength",
          "type": "uint256"
        }
      ],
      "name": "ERC1155InvalidArrayLength",
      "type": "error"
    },
    {
      "inputs": [
        {
          "internalType": "address",
          "name": "operator",
          "type": "address"
        }
      ],
      "name": "ERC1155InvalidOperator",
      "type": "error"
    },
    {
      "inputs": [
        {
          "internalType": "address",
          "name": "receiver",
          "type": "address"
        }
      ],
      "name": "ERC1155InvalidReceiver",
      "type": "error"
    },
    {
      "inputs": [
        {
          "internalType": "address",
          "name": "sender",
          "type": "address"
        }
      ],
      "name": "ERC1155InvalidSender",
      "type": "error"
    },
    {
      "inputs": [
        {
          "internalType": "address",
          "name": "operator",
          "type": "address"
        },
        {
          "internalType": "address",
          "name": "owner",
          "type": "address"
        }
      ],
      "name": "ERC1155MissingApprovalForAll",
      "type": "error"
    },
    {
      "anonymous": false,
      "inputs": [
        {
          "indexed": true,
          "internalType": "address",
          "name": "account",
          "type": "address"
        },
        {
          "indexed": true,
          "internalType": "address",
          "name": "operator",
          "type": "address"
        },
        {
          "indexed": false,
          "internalType": "bool",
          "name": "approved",
          "type": "bool"
        }
      ],
      "name": "ApprovalForAll",
      "type": "event"
    },
    {
      "anonymous": false,
      "inputs": [
        {
          "indexed": false,
          "internalType": "uint256",
          "name": "surveyId",
          "type": "uint256"
        },
        {
          "indexed": false,
          "internalType": "string",
          "name": "name",
          "type": "string"
        },
        {
          "indexed": false,
          "internalType": "string",
          "name": "description",
          "type": "string"
        },
        {
          "indexed": false,
          "internalType": "string",
          "name": "imageCID",
          "type": "string"
        },
        {
          "indexed": false,
          "internalType": "string",
          "name": "encryptedCID",
          "type": "string"
        },
        {
          "indexed": false,
          "internalType": "address",
          "name": "surveyAddress",
          "type": "address"
        }
      ],
      "name": "CreateSurveyEvent",
      "type": "event"
    },
    {
      "anonymous": false,
      "inputs": [
        {
          "indexed": false,
          "internalType": "uint256",
          "name": "surveyId",
          "type": "uint256"
        },
        {
          "indexed": false,
          "internalType": "uint256",
          "name": "maxReply",
          "type": "uint256"
        },
        {
          "indexed": false,
          "internalType": "uint256",
          "name": "incentive",
          "type": "uint256"
        },
        {
          "indexed": false,
          "internalType": "address",
          "name": "owner",
          "type": "address"
        }
      ],
      "name": "CreateSurveyMetadataEvent",
      "type": "event"
    },
    {
      "anonymous": false,
      "inputs": [
        {
          "indexed": true,
          "internalType": "bytes32",
          "name": "role",
          "type": "bytes32"
        },
        {
          "indexed": true,
          "internalType": "bytes32",
          "name": "previousAdminRole",
          "type": "bytes32"
        },
        {
          "indexed": true,
          "internalType": "bytes32",
          "name": "newAdminRole",
          "type": "bytes32"
        }
      ],
      "name": "RoleAdminChanged",
      "type": "event"
    },
    {
      "anonymous": false,
      "inputs": [
        {
          "indexed": true,
          "internalType": "bytes32",
          "name": "role",
          "type": "bytes32"
        },
        {
          "indexed": true,
          "internalType": "address",
          "name": "account",
          "type": "address"
        },
        {
          "indexed": true,
          "internalType": "address",
          "name": "sender",
          "type": "address"
        }
      ],
      "name": "RoleGranted",
      "type": "event"
    },
    {
      "anonymous": false,
      "inputs": [
        {
          "indexed": true,
          "internalType": "bytes32",
          "name": "role",
          "type": "bytes32"
        },
        {
          "indexed": true,
          "internalType": "address",
          "name": "account",
          "type": "address"
        },
        {
          "indexed": true,
          "internalType": "address",
          "name": "sender",
          "type": "address"
        }
      ],
      "name": "RoleRevoked",
      "type": "event"
    },
    {
      "anonymous": false,
      "inputs": [
        {
          "indexed": true,
          "internalType": "address",
          "name": "operator",
          "type": "address"
        },
        {
          "indexed": true,
          "internalType": "address",
          "name": "from",
          "type": "address"
        },
        {
          "indexed": true,
          "internalType": "address",
          "name": "to",
          "type": "address"
        },
        {
          "indexed": false,
          "internalType": "uint256[]",
          "name": "ids",
          "type": "uint256[]"
        },
        {
          "indexed": false,
          "internalType": "uint256[]",
          "name": "values",
          "type": "uint256[]"
        }
      ],
      "name": "TransferBatch",
      "type": "event"
    },
    {
      "anonymous": false,
      "inputs": [
        {
          "indexed": true,
          "internalType": "address",
          "name": "operator",
          "type": "address"
        },
        {
          "indexed": true,
          "internalType": "address",
          "name": "from",
          "type": "address"
        },
        {
          "indexed": true,
          "internalType": "address",
          "name": "to",
          "type": "address"
        },
        {
          "indexed": false,
          "internalType": "uint256",
          "name": "id",
          "type": "uint256"
        },
        {
          "indexed": false,
          "internalType": "uint256",
          "name": "value",
          "type": "uint256"
        }
      ],
      "name": "TransferSingle",
      "type": "event"
    },
    {
      "anonymous": false,
      "inputs": [
        {
          "indexed": false,
          "internalType": "string",
          "name": "value",
          "type": "string"
        },
        {
          "indexed": true,
          "internalType": "uint256",
          "name": "id",
          "type": "uint256"
        }
      ],
      "name": "URI",
      "type": "event"
    },
    {
      "inputs": [],
      "name": "CSURVEY",
      "outputs": [
        {
          "internalType": "uint256",
          "name": "",
          "type": "uint256"
        }
      ],
      "stateMutability": "view",
      "type": "function"
    },
    {
      "inputs": [],
      "name": "DEFAULT_ADMIN_ROLE",
      "outputs": [
        {
          "internalType": "bytes32",
          "name": "",
          "type": "bytes32"
        }
      ],
      "stateMutability": "view",
      "type": "function"
    },
    {
      "inputs": [
        {
          "internalType": "address",
          "name": "account",
          "type": "address"
        },
        {
          "internalType": "uint256",
          "name": "id",
          "type": "uint256"
        }
      ],
      "name": "balanceOf",
      "outputs": [
        {
          "internalType": "uint256",
          "name": "",
          "type": "uint256"
        }
      ],
      "stateMutability": "view",
      "type": "function"
    },
    {
      "inputs": [
        {
          "internalType": "address[]",
          "name": "accounts",
          "type": "address[]"
        },
        {
          "internalType": "uint256[]",
          "name": "ids",
          "type": "uint256[]"
        }
      ],
      "name": "balanceOfBatch",
      "outputs": [
        {
          "internalType": "uint256[]",
          "name": "",
          "type": "uint256[]"
        }
      ],
      "stateMutability": "view",
      "type": "function"
    },
    {
      "inputs": [
        {
          "internalType": "uint256",
          "name": "maxReply",
          "type": "uint256"
        },
        {
          "internalType": "uint256",
          "name": "incentive",
          "type": "uint256"
        },
        {
          "internalType": "string",
          "name": "name",
          "type": "string"
        },
        {
          "internalType": "string",
          "name": "description",
          "type": "string"
        },
        {
          "internalType": "string",
          "name": "imageCID",
          "type": "string"
        },
        {
          "internalType": "string",
          "name": "encryptedCID",
          "type": "string"
        }
      ],
      "name": "createSurvey",
      "outputs": [],
      "stateMutability": "nonpayable",
      "type": "function"
    },
    {
      "inputs": [
        {
          "internalType": "bytes32",
          "name": "role",
          "type": "bytes32"
        }
      ],
      "name": "getRoleAdmin",
      "outputs": [
        {
          "internalType": "bytes32",
          "name": "",
          "type": "bytes32"
        }
      ],
      "stateMutability": "view",
      "type": "function"
    },
    {
      "inputs": [
        {
          "internalType": "address",
          "name": "_address",
          "type": "address"
        }
      ],
      "name": "getSurveysForAddress",
      "outputs": [
        {
          "components": [
            {
              "internalType": "uint256",
              "name": "surveyId",
              "type": "uint256"
            },
            {
              "internalType": "string",
              "name": "name",
              "type": "string"
            },
            {
              "internalType": "string",
              "name": "description",
              "type": "string"
            },
            {
              "internalType": "string",
              "name": "imageCID",
              "type": "string"
            },
            {
              "internalType": "string",
              "name": "encryptedCID",
              "type": "string"
            }
          ],
          "internalType": "struct CryptoSurvey.Survey[]",
          "name": "",
          "type": "tuple[]"
        }
      ],
      "stateMutability": "view",
      "type": "function"
    },
    {
      "inputs": [
        {
          "internalType": "bytes32",
          "name": "role",
          "type": "bytes32"
        },
        {
          "internalType": "address",
          "name": "account",
          "type": "address"
        }
      ],
      "name": "grantRole",
      "outputs": [],
      "stateMutability": "nonpayable",
      "type": "function"
    },
    {
      "inputs": [
        {
          "internalType": "bytes32",
          "name": "role",
          "type": "bytes32"
        },
        {
          "internalType": "address",
          "name": "account",
          "type": "address"
        }
      ],
      "name": "hasRole",
      "outputs": [
        {
          "internalType": "bool",
          "name": "",
          "type": "bool"
        }
      ],
      "stateMutability": "view",
      "type": "function"
    },
    {
      "inputs": [
        {
          "internalType": "address",
          "name": "account",
          "type": "address"
        },
        {
          "internalType": "address",
          "name": "operator",
          "type": "address"
        }
      ],
      "name": "isApprovedForAll",
      "outputs": [
        {
          "internalType": "bool",
          "name": "",
          "type": "bool"
        }
      ],
      "stateMutability": "view",
      "type": "function"
    },
    {
      "inputs": [
        {
          "internalType": "bytes32",
          "name": "role",
          "type": "bytes32"
        },
        {
          "internalType": "address",
          "name": "callerConfirmation",
          "type": "address"
        }
      ],
      "name": "renounceRole",
      "outputs": [],
      "stateMutability": "nonpayable",
      "type": "function"
    },
    {
      "inputs": [
        {
          "internalType": "address",
          "name": "",
          "type": "address"
        },
        {
          "internalType": "uint256",
          "name": "",
          "type": "uint256"
        }
      ],
      "name": "requests",
      "outputs": [
        {
          "internalType": "uint256",
          "name": "surveyId",
          "type": "uint256"
        },
        {
          "internalType": "address",
          "name": "requestAddress",
          "type": "address"
        },
        {
          "internalType": "string",
          "name": "description",
          "type": "string"
        }
      ],
      "stateMutability": "view",
      "type": "function"
    },
    {
      "inputs": [
        {
          "internalType": "bytes32",
          "name": "role",
          "type": "bytes32"
        },
        {
          "internalType": "address",
          "name": "account",
          "type": "address"
        }
      ],
      "name": "revokeRole",
      "outputs": [],
      "stateMutability": "nonpayable",
      "type": "function"
    },
    {
      "inputs": [
        {
          "internalType": "address",
          "name": "from",
          "type": "address"
        },
        {
          "internalType": "address",
          "name": "to",
          "type": "address"
        },
        {
          "internalType": "uint256[]",
          "name": "ids",
          "type": "uint256[]"
        },
        {
          "internalType": "uint256[]",
          "name": "values",
          "type": "uint256[]"
        },
        {
          "internalType": "bytes",
          "name": "data",
          "type": "bytes"
        }
      ],
      "name": "safeBatchTransferFrom",
      "outputs": [],
      "stateMutability": "nonpayable",
      "type": "function"
    },
    {
      "inputs": [
        {
          "internalType": "address",
          "name": "from",
          "type": "address"
        },
        {
          "internalType": "address",
          "name": "to",
          "type": "address"
        },
        {
          "internalType": "uint256",
          "name": "id",
          "type": "uint256"
        },
        {
          "internalType": "uint256",
          "name": "value",
          "type": "uint256"
        },
        {
          "internalType": "bytes",
          "name": "data",
          "type": "bytes"
        }
      ],
      "name": "safeTransferFrom",
      "outputs": [],
      "stateMutability": "nonpayable",
      "type": "function"
    },
    {
      "inputs": [
        {
          "internalType": "address",
          "name": "operator",
          "type": "address"
        },
        {
          "internalType": "bool",
          "name": "approved",
          "type": "bool"
        }
      ],
      "name": "setApprovalForAll",
      "outputs": [],
      "stateMutability": "nonpayable",
      "type": "function"
    },
    {
      "inputs": [
        {
          "internalType": "bytes4",
          "name": "interfaceId",
          "type": "bytes4"
        }
      ],
      "name": "supportsInterface",
      "outputs": [
        {
          "internalType": "bool",
          "name": "",
          "type": "bool"
        }
      ],
      "stateMutability": "view",
      "type": "function"
    },
    {
      "inputs": [
        {
          "internalType": "uint256",
          "name": "",
          "type": "uint256"
        }
      ],
      "name": "surveyMetadata",
      "outputs": [
        {
          "internalType": "uint256",
          "name": "surveyId",
          "type": "uint256"
        },
        {
          "internalType": "uint256",
          "name": "maxReply",
          "type": "uint256"
        },
        {
          "internalType": "uint256",
          "name": "incentive",
          "type": "uint256"
        },
        {
          "internalType": "address",
          "name": "owner",
          "type": "address"
        }
      ],
      "stateMutability": "view",
      "type": "function"
    },
    {
      "inputs": [
        {
          "internalType": "address",
          "name": "",
          "type": "address"
        },
        {
          "internalType": "uint256",
          "name": "",
          "type": "uint256"
        }
      ],
      "name": "surveyReplies",
      "outputs": [
        {
          "internalType": "uint256",
          "name": "surveyId",
          "type": "uint256"
        },
        {
          "internalType": "uint256",
          "name": "incentive",
          "type": "uint256"
        },
        {
          "internalType": "string",
          "name": "encryptedCID",
          "type": "string"
        },
        {
          "internalType": "address",
          "name": "replyAddress",
          "type": "address"
        }
      ],
      "stateMutability": "view",
      "type": "function"
    },
    {
      "inputs": [
        {
          "internalType": "address",
          "name": "",
          "type": "address"
        },
        {
          "internalType": "uint256",
          "name": "",
          "type": "uint256"
        }
      ],
      "name": "surveys",
      "outputs": [
        {
          "internalType": "uint256",
          "name": "surveyId",
          "type": "uint256"
        },
        {
          "internalType": "string",
          "name": "name",
          "type": "string"
        },
        {
          "internalType": "string",
          "name": "description",
          "type": "string"
        },
        {
          "internalType": "string",
          "name": "imageCID",
          "type": "string"
        },
        {
          "internalType": "string",
          "name": "encryptedCID",
          "type": "string"
        }
      ],
      "stateMutability": "view",
      "type": "function"
    },
    {
      "inputs": [
        {
          "internalType": "uint256",
          "name": "",
          "type": "uint256"
        }
      ],
      "name": "uri",
      "outputs": [
        {
          "internalType": "string",
          "name": "",
          "type": "string"
        }
      ],
      "stateMutability": "view",
      "type": "function"
    }
  ],
  "bytecode": "0x6080604052600160045534801561001557600080fd5b50604051806020016040528060008152506100358161003b60201b60201c565b50610370565b806003908161004a919061029e565b5050565b600081519050919050565b7f4e487b7100000000000000000000000000000000000000000000000000000000600052604160045260246000fd5b7f4e487b7100000000000000000000000000000000000000000000000000000000600052602260045260246000fd5b600060028204905060018216806100cf57607f821691505b6020821081036100e2576100e1610088565b5b50919050565b60008190508160005260206000209050919050565b60006020601f8301049050919050565b600082821b905092915050565b60006008830261014a7fffffffffffffffffffffffffffffffffffffffffffffffffffffffffffffffff8261010d565b610154868361010d565b95508019841693508086168417925050509392505050565b6000819050919050565b6000819050919050565b600061019b6101966101918461016c565b610176565b61016c565b9050919050565b6000819050919050565b6101b583610180565b6101c96101c1826101a2565b84845461011a565b825550505050565b600090565b6101de6101d1565b6101e98184846101ac565b505050565b5b8181101561020d576102026000826101d6565b6001810190506101ef565b5050565b601f82111561025257610223816100e8565b61022c846100fd565b8101602085101561023b578190505b61024f610247856100fd565b8301826101ee565b50505b505050565b600082821c905092915050565b600061027560001984600802610257565b1980831691505092915050565b600061028e8383610264565b9150826002028217905092915050565b6102a78261004e565b67ffffffffffffffff8111156102c0576102bf610059565b5b6102ca82546100b7565b6102d5828285610211565b600060209050601f83116001811461030857600084156102f6578287015190505b6103008582610282565b865550610368565b601f198416610316866100e8565b60005b8281101561033e57848901518255600182019150602085019450602081019050610319565b8683101561035b5784890151610357601f891682610264565b8355505b6001600288020188555050505b505050505050565b613b108061037f6000396000f3fe608060405234801561001057600080fd5b50600436106101365760003560e01c806391d14854116100b8578063c62fa9d61161007c578063c62fa9d61461039e578063d547741f146103d1578063e985e9c5146103ed578063f0d4de371461041d578063f242432a1461044d578063ffea4c821461046957610136565b806391d14854146102e65780639eabc56a146103165780639ecebe2a14610332578063a217fddf14610364578063a22cb4651461038257610136565b80632eb2c2d6116100ff5780632eb2c2d61461022e5780632f2ff15d1461024a57806336568abe146102665780633797e486146102825780634e1273f4146102b657610136565b8062fdd58e1461013b57806301e80cb41461016b57806301ffc9a71461019e5780630e89341c146101ce578063248a9ca3146101fe575b600080fd5b610155600480360381019061015091906126b4565b610487565b6040516101629190612703565b60405180910390f35b610185600480360381019061018091906126b4565b6104e2565b60405161019594939291906127bd565b60405180910390f35b6101b860048036038101906101b39190612861565b6105d7565b6040516101c591906128a9565b60405180910390f35b6101e860048036038101906101e391906128c4565b6106b9565b6040516101f591906128f1565b60405180910390f35b61021860048036038101906102139190612949565b61074d565b6040516102259190612985565b60405180910390f35b61024860048036038101906102439190612b9d565b61076c565b005b610264600480360381019061025f9190612c6c565b610814565b005b610280600480360381019061027b9190612c6c565b610836565b005b61029c600480360381019061029791906126b4565b6108b1565b6040516102ad959493929190612cac565b60405180910390f35b6102d060048036038101906102cb9190612dde565b610b24565b6040516102dd9190612f14565b60405180910390f35b61030060048036038101906102fb9190612c6c565b610c2d565b60405161030d91906128a9565b60405180910390f35b610330600480360381019061032b9190612f91565b610c97565b005b61034c600480360381019061034791906126b4565b61101e565b60405161035b939291906130a1565b60405180910390f35b61036c61110d565b6040516103799190612985565b60405180910390f35b61039c6004803603810190610397919061310b565b611114565b005b6103b860048036038101906103b391906128c4565b61112a565b6040516103c8949392919061314b565b60405180910390f35b6103eb60048036038101906103e69190612c6c565b61117a565b005b61040760048036038101906104029190613190565b61119c565b60405161041491906128a9565b60405180910390f35b610437600480360381019061043291906131d0565b611230565b6040516104449190613394565b60405180910390f35b610467600480360381019061046291906133b6565b611520565b005b6104716115c8565b60405161047e9190612703565b60405180910390f35b60006001600083815260200190815260200160002060008473ffffffffffffffffffffffffffffffffffffffff1673ffffffffffffffffffffffffffffffffffffffff16815260200190815260200160002054905092915050565b600660205281600052604060002081815481106104fe57600080fd5b90600052602060002090600402016000915091505080600001549080600101549080600201805461052e9061347c565b80601f016020809104026020016040519081016040528092919081815260200182805461055a9061347c565b80156105a75780601f1061057c576101008083540402835291602001916105a7565b820191906000526020600020905b81548152906001019060200180831161058a57829003601f168201915b5050505050908060030160009054906101000a900473ffffffffffffffffffffffffffffffffffffffff16905084565b60007f7965db0b000000000000000000000000000000000000000000000000000000007bffffffffffffffffffffffffffffffffffffffffffffffffffffffff1916827bffffffffffffffffffffffffffffffffffffffffffffffffffffffff191614806106a257507fd9b67a26000000000000000000000000000000000000000000000000000000007bffffffffffffffffffffffffffffffffffffffffffffffffffffffff1916827bffffffffffffffffffffffffffffffffffffffffffffffffffffffff1916145b806106b257506106b1826115cd565b5b9050919050565b6060600380546106c89061347c565b80601f01602080910402602001604051908101604052809291908181526020018280546106f49061347c565b80156107415780601f1061071657610100808354040283529160200191610741565b820191906000526020600020905b81548152906001019060200180831161072457829003601f168201915b50505050509050919050565b6000806000838152602001908152602001600020600101549050919050565b60006107766116af565b90508073ffffffffffffffffffffffffffffffffffffffff168673ffffffffffffffffffffffffffffffffffffffff16141580156107bb57506107b9868261119c565b155b156107ff5780866040517fe237d9220000000000000000000000000000000000000000000000000000000081526004016107f69291906134ad565b60405180910390fd5b61080c86868686866116b7565b505050505050565b61081d8261074d565b610826816117af565b61083083836117c3565b50505050565b61083e6116af565b73ffffffffffffffffffffffffffffffffffffffff168173ffffffffffffffffffffffffffffffffffffffff16146108a2576040517f6697b23200000000000000000000000000000000000000000000000000000000815260040160405180910390fd5b6108ac82826118b4565b505050565b600560205281600052604060002081815481106108cd57600080fd5b9060005260206000209060050201600091509150508060000154908060010180546108f79061347c565b80601f01602080910402602001604051908101604052809291908181526020018280546109239061347c565b80156109705780601f1061094557610100808354040283529160200191610970565b820191906000526020600020905b81548152906001019060200180831161095357829003601f168201915b5050505050908060020180546109859061347c565b80601f01602080910402602001604051908101604052809291908181526020018280546109b19061347c565b80156109fe5780601f106109d3576101008083540402835291602001916109fe565b820191906000526020600020905b8154815290600101906020018083116109e157829003601f168201915b505050505090806003018054610a139061347c565b80601f0160208091040260200160405190810160405280929190818152602001828054610a3f9061347c565b8015610a8c5780601f10610a6157610100808354040283529160200191610a8c565b820191906000526020600020905b815481529060010190602001808311610a6f57829003601f168201915b505050505090806004018054610aa19061347c565b80601f0160208091040260200160405190810160405280929190818152602001828054610acd9061347c565b8015610b1a5780601f10610aef57610100808354040283529160200191610b1a565b820191906000526020600020905b815481529060010190602001808311610afd57829003601f168201915b5050505050905085565b60608151835114610b7057815183516040517f5b059991000000000000000000000000000000000000000000000000000000008152600401610b679291906134d6565b60405180910390fd5b6000835167ffffffffffffffff811115610b8d57610b8c6129a5565b5b604051908082528060200260200182016040528015610bbb5781602001602082028036833780820191505090505b50905060005b8451811015610c2257610bf8610be082876119a690919063ffffffff16565b610bf383876119ba90919063ffffffff16565b610487565b828281518110610c0b57610c0a6134ff565b5b602002602001018181525050806001019050610bc1565b508091505092915050565b600080600084815260200190815260200160002060000160008373ffffffffffffffffffffffffffffffffffffffff1673ffffffffffffffffffffffffffffffffffffffff16815260200190815260200160002060009054906101000a900460ff16905092915050565b610cb33360008b604051806020016040528060008152506119ce565b600560003373ffffffffffffffffffffffffffffffffffffffff1673ffffffffffffffffffffffffffffffffffffffff1681526020019081526020016000206040518060a0016040528060045481526020018a8a8080601f016020809104026020016040519081016040528093929190818152602001838380828437600081840152601f19601f82011690508083019250505050505050815260200188888080601f016020809104026020016040519081016040528093929190818152602001838380828437600081840152601f19601f82011690508083019250505050505050815260200186868080601f016020809104026020016040519081016040528093929190818152602001838380828437600081840152601f19601f82011690508083019250505050505050815260200184848080601f016020809104026020016040519081016040528093929190818152602001838380828437600081840152601f19601f820116905080830192505050505050508152509080600181540180825580915050600190039060005260206000209060050201600090919091909150600082015181600001556020820151816001019081610e7391906136da565b506040820151816002019081610e8991906136da565b506060820151816003019081610e9f91906136da565b506080820151816004019081610eb591906136da565b505050604051806080016040528060045481526020018b81526020018a81526020013373ffffffffffffffffffffffffffffffffffffffff1681525060076000600454815260200190815260200160002060008201518160000155602082015181600101556040820151816002015560608201518160030160006101000a81548173ffffffffffffffffffffffffffffffffffffffff021916908373ffffffffffffffffffffffffffffffffffffffff1602179055509050507faa6bef3bad617a58e34dd4e641462c367b1061588eb73a8ffed2032dd526c567600454898989898989898933604051610fb19a999897969594939291906137d9565b60405180910390a17fecbe31ac198500ae06291c26441a2e9514f84b27c5b8a28b580e54dccc4d746b6004548b8b33604051610ff0949392919061314b565b60405180910390a160026004600082825461100b919061388d565b9250508190555050505050505050505050565b6008602052816000526040600020818154811061103a57600080fd5b9060005260206000209060030201600091509150508060000154908060010160009054906101000a900473ffffffffffffffffffffffffffffffffffffffff169080600201805461108a9061347c565b80601f01602080910402602001604051908101604052809291908181526020018280546110b69061347c565b80156111035780601f106110d857610100808354040283529160200191611103565b820191906000526020600020905b8154815290600101906020018083116110e657829003601f168201915b5050505050905083565b6000801b81565b61112661111f6116af565b8383611a67565b5050565b60076020528060005260406000206000915090508060000154908060010154908060020154908060030160009054906101000a900473ffffffffffffffffffffffffffffffffffffffff16905084565b6111838261074d565b61118c816117af565b61119683836118b4565b50505050565b6000600260008473ffffffffffffffffffffffffffffffffffffffff1673ffffffffffffffffffffffffffffffffffffffff16815260200190815260200160002060008373ffffffffffffffffffffffffffffffffffffffff1673ffffffffffffffffffffffffffffffffffffffff16815260200190815260200160002060009054906101000a900460ff16905092915050565b6060600560008373ffffffffffffffffffffffffffffffffffffffff1673ffffffffffffffffffffffffffffffffffffffff168152602001908152602001600020805480602002602001604051908101604052809291908181526020016000905b8282101561151557838290600052602060002090600502016040518060a0016040529081600082015481526020016001820180546112ce9061347c565b80601f01602080910402602001604051908101604052809291908181526020018280546112fa9061347c565b80156113475780601f1061131c57610100808354040283529160200191611347565b820191906000526020600020905b81548152906001019060200180831161132a57829003601f168201915b505050505081526020016002820180546113609061347c565b80601f016020809104026020016040519081016040528092919081815260200182805461138c9061347c565b80156113d95780601f106113ae576101008083540402835291602001916113d9565b820191906000526020600020905b8154815290600101906020018083116113bc57829003601f168201915b505050505081526020016003820180546113f29061347c565b80601f016020809104026020016040519081016040528092919081815260200182805461141e9061347c565b801561146b5780601f106114405761010080835404028352916020019161146b565b820191906000526020600020905b81548152906001019060200180831161144e57829003601f168201915b505050505081526020016004820180546114849061347c565b80601f01602080910402602001604051908101604052809291908181526020018280546114b09061347c565b80156114fd5780601f106114d2576101008083540402835291602001916114fd565b820191906000526020600020905b8154815290600101906020018083116114e057829003601f168201915b50505050508152505081526020019060010190611291565b505050509050919050565b600061152a6116af565b90508073ffffffffffffffffffffffffffffffffffffffff168673ffffffffffffffffffffffffffffffffffffffff161415801561156f575061156d868261119c565b155b156115b35780866040517fe237d9220000000000000000000000000000000000000000000000000000000081526004016115aa9291906134ad565b60405180910390fd5b6115c08686868686611bd7565b505050505050565b600081565b60007fd9b67a26000000000000000000000000000000000000000000000000000000007bffffffffffffffffffffffffffffffffffffffffffffffffffffffff1916827bffffffffffffffffffffffffffffffffffffffffffffffffffffffff1916148061169857507f0e89341c000000000000000000000000000000000000000000000000000000007bffffffffffffffffffffffffffffffffffffffffffffffffffffffff1916827bffffffffffffffffffffffffffffffffffffffffffffffffffffffff1916145b806116a857506116a782611ce2565b5b9050919050565b600033905090565b600073ffffffffffffffffffffffffffffffffffffffff168473ffffffffffffffffffffffffffffffffffffffff16036117295760006040517f57f447ce00000000000000000000000000000000000000000000000000000000815260040161172091906138c1565b60405180910390fd5b600073ffffffffffffffffffffffffffffffffffffffff168573ffffffffffffffffffffffffffffffffffffffff160361179b5760006040517f01a8351400000000000000000000000000000000000000000000000000000000815260040161179291906138c1565b60405180910390fd5b6117a88585858585611d5c565b5050505050565b6117c0816117bb6116af565b611e0e565b50565b60006117cf8383610c2d565b6118a957600160008085815260200190815260200160002060000160008473ffffffffffffffffffffffffffffffffffffffff1673ffffffffffffffffffffffffffffffffffffffff16815260200190815260200160002060006101000a81548160ff0219169083151502179055506118466116af565b73ffffffffffffffffffffffffffffffffffffffff168273ffffffffffffffffffffffffffffffffffffffff16847f2f8788117e7eff1d82e926ec794901d17c78024a50270940304540a733656f0d60405160405180910390a4600190506118ae565b600090505b92915050565b60006118c08383610c2d565b1561199b57600080600085815260200190815260200160002060000160008473ffffffffffffffffffffffffffffffffffffffff1673ffffffffffffffffffffffffffffffffffffffff16815260200190815260200160002060006101000a81548160ff0219169083151502179055506119386116af565b73ffffffffffffffffffffffffffffffffffffffff168273ffffffffffffffffffffffffffffffffffffffff16847ff6391f5c32d9c69d2a47ea670b442974b53935d1edc7fd64eb21e047a839171b60405160405180910390a4600190506119a0565b600090505b92915050565b600060208202602084010151905092915050565b600060208202602084010151905092915050565b600073ffffffffffffffffffffffffffffffffffffffff168473ffffffffffffffffffffffffffffffffffffffff1603611a405760006040517f57f447ce000000000000000000000000000000000000000000000000000000008152600401611a3791906138c1565b60405180910390fd5b600080611a4d8585611e5f565b91509150611a5f600087848487611d5c565b505050505050565b600073ffffffffffffffffffffffffffffffffffffffff168273ffffffffffffffffffffffffffffffffffffffff1603611ad95760006040517fced3e100000000000000000000000000000000000000000000000000000000008152600401611ad091906138c1565b60405180910390fd5b80600260008573ffffffffffffffffffffffffffffffffffffffff1673ffffffffffffffffffffffffffffffffffffffff16815260200190815260200160002060008473ffffffffffffffffffffffffffffffffffffffff1673ffffffffffffffffffffffffffffffffffffffff16815260200190815260200160002060006101000a81548160ff0219169083151502179055508173ffffffffffffffffffffffffffffffffffffffff168373ffffffffffffffffffffffffffffffffffffffff167f17307eab39ab6107e8899845ad3d59bd9653f200f220920489ca2b5937696c3183604051611bca91906128a9565b60405180910390a3505050565b600073ffffffffffffffffffffffffffffffffffffffff168473ffffffffffffffffffffffffffffffffffffffff1603611c495760006040517f57f447ce000000000000000000000000000000000000000000000000000000008152600401611c4091906138c1565b60405180910390fd5b600073ffffffffffffffffffffffffffffffffffffffff168573ffffffffffffffffffffffffffffffffffffffff1603611cbb5760006040517f01a83514000000000000000000000000000000000000000000000000000000008152600401611cb291906138c1565b60405180910390fd5b600080611cc88585611e5f565b91509150611cd98787848487611d5c565b50505050505050565b60007f7965db0b000000000000000000000000000000000000000000000000000000007bffffffffffffffffffffffffffffffffffffffffffffffffffffffff1916827bffffffffffffffffffffffffffffffffffffffffffffffffffffffff19161480611d555750611d5482611e8f565b5b9050919050565b611d6885858585611ef9565b600073ffffffffffffffffffffffffffffffffffffffff168473ffffffffffffffffffffffffffffffffffffffff1614611e07576000611da66116af565b90506001845103611df6576000611dc76000866119ba90919063ffffffff16565b90506000611ddf6000866119ba90919063ffffffff16565b9050611def8389898585896122a4565b5050611e05565b611e04818787878787612458565b5b505b5050505050565b611e188282610c2d565b611e5b5780826040517fe2517d3f000000000000000000000000000000000000000000000000000000008152600401611e529291906138dc565b60405180910390fd5b5050565b60608060405191506001825283602083015260408201905060018152826020820152604081016040529250929050565b60007f01ffc9a7000000000000000000000000000000000000000000000000000000007bffffffffffffffffffffffffffffffffffffffffffffffffffffffff1916827bffffffffffffffffffffffffffffffffffffffffffffffffffffffff1916149050919050565b8051825114611f4357815181516040517f5b059991000000000000000000000000000000000000000000000000000000008152600401611f3a9291906134d6565b60405180910390fd5b6000611f4d6116af565b905060005b835181101561215f576000611f7082866119ba90919063ffffffff16565b90506000611f8783866119ba90919063ffffffff16565b9050600073ffffffffffffffffffffffffffffffffffffffff168873ffffffffffffffffffffffffffffffffffffffff16146120b65760006001600084815260200190815260200160002060008a73ffffffffffffffffffffffffffffffffffffffff1673ffffffffffffffffffffffffffffffffffffffff1681526020019081526020016000205490508181101561205d57888183856040517f03dee4c50000000000000000000000000000000000000000000000000000000081526004016120549493929190613905565b60405180910390fd5b8181036001600085815260200190815260200160002060008b73ffffffffffffffffffffffffffffffffffffffff1673ffffffffffffffffffffffffffffffffffffffff16815260200190815260200160002081905550505b600073ffffffffffffffffffffffffffffffffffffffff168773ffffffffffffffffffffffffffffffffffffffff161461215257806001600084815260200190815260200160002060008973ffffffffffffffffffffffffffffffffffffffff1673ffffffffffffffffffffffffffffffffffffffff168152602001908152602001600020600082825461214a919061388d565b925050819055505b5050806001019050611f52565b50600183510361221e57600061217f6000856119ba90919063ffffffff16565b905060006121976000856119ba90919063ffffffff16565b90508573ffffffffffffffffffffffffffffffffffffffff168773ffffffffffffffffffffffffffffffffffffffff168473ffffffffffffffffffffffffffffffffffffffff167fc3d58168c5ae7397731d063d5bbf3d657854427343f4c083240f7aacaa2d0f62858560405161220f9291906134d6565b60405180910390a4505061229d565b8373ffffffffffffffffffffffffffffffffffffffff168573ffffffffffffffffffffffffffffffffffffffff168273ffffffffffffffffffffffffffffffffffffffff167f4a39dc06d4c0dbc64b70af90fd698a233a518aa5d07e595d983b8c0526c8f7fb868660405161229492919061394a565b60405180910390a45b5050505050565b60008473ffffffffffffffffffffffffffffffffffffffff163b1115612450578373ffffffffffffffffffffffffffffffffffffffff1663f23a6e6187878686866040518663ffffffff1660e01b81526004016123059594939291906139d6565b6020604051808303816000875af192505050801561234157506040513d601f19601f8201168201806040525081019061233e9190613a45565b60015b6123c5573d8060008114612371576040519150601f19603f3d011682016040523d82523d6000602084013e612376565b606091505b5060008151036123bd57846040517f57f447ce0000000000000000000000000000000000000000000000000000000081526004016123b491906138c1565b60405180910390fd5b805181602001fd5b63f23a6e6160e01b7bffffffffffffffffffffffffffffffffffffffffffffffffffffffff1916817bffffffffffffffffffffffffffffffffffffffffffffffffffffffff19161461244e57846040517f57f447ce00000000000000000000000000000000000000000000000000000000815260040161244591906138c1565b60405180910390fd5b505b505050505050565b60008473ffffffffffffffffffffffffffffffffffffffff163b1115612604578373ffffffffffffffffffffffffffffffffffffffff1663bc197c8187878686866040518663ffffffff1660e01b81526004016124b9959493929190613a72565b6020604051808303816000875af19250505080156124f557506040513d601f19601f820116820180604052508101906124f29190613a45565b60015b612579573d8060008114612525576040519150601f19603f3d011682016040523d82523d6000602084013e61252a565b606091505b50600081510361257157846040517f57f447ce00000000000000000000000000000000000000000000000000000000815260040161256891906138c1565b60405180910390fd5b805181602001fd5b63bc197c8160e01b7bffffffffffffffffffffffffffffffffffffffffffffffffffffffff1916817bffffffffffffffffffffffffffffffffffffffffffffffffffffffff19161461260257846040517f57f447ce0000000000000000000000000000000000000000000000000000000081526004016125f991906138c1565b60405180910390fd5b505b505050505050565b6000604051905090565b600080fd5b600080fd5b600073ffffffffffffffffffffffffffffffffffffffff82169050919050565b600061264b82612620565b9050919050565b61265b81612640565b811461266657600080fd5b50565b60008135905061267881612652565b92915050565b6000819050919050565b6126918161267e565b811461269c57600080fd5b50565b6000813590506126ae81612688565b92915050565b600080604083850312156126cb576126ca612616565b5b60006126d985828601612669565b92505060206126ea8582860161269f565b9150509250929050565b6126fd8161267e565b82525050565b600060208201905061271860008301846126f4565b92915050565b600081519050919050565b600082825260208201905092915050565b60005b8381101561275857808201518184015260208101905061273d565b60008484015250505050565b6000601f19601f8301169050919050565b60006127808261271e565b61278a8185612729565b935061279a81856020860161273a565b6127a381612764565b840191505092915050565b6127b781612640565b82525050565b60006080820190506127d260008301876126f4565b6127df60208301866126f4565b81810360408301526127f18185612775565b905061280060608301846127ae565b95945050505050565b60007fffffffff0000000000000000000000000000000000000000000000000000000082169050919050565b61283e81612809565b811461284957600080fd5b50565b60008135905061285b81612835565b92915050565b60006020828403121561287757612876612616565b5b60006128858482850161284c565b91505092915050565b60008115159050919050565b6128a38161288e565b82525050565b60006020820190506128be600083018461289a565b92915050565b6000602082840312156128da576128d9612616565b5b60006128e88482850161269f565b91505092915050565b6000602082019050818103600083015261290b8184612775565b905092915050565b6000819050919050565b61292681612913565b811461293157600080fd5b50565b6000813590506129438161291d565b92915050565b60006020828403121561295f5761295e612616565b5b600061296d84828501612934565b91505092915050565b61297f81612913565b82525050565b600060208201905061299a6000830184612976565b92915050565b600080fd5b7f4e487b7100000000000000000000000000000000000000000000000000000000600052604160045260246000fd5b6129dd82612764565b810181811067ffffffffffffffff821117156129fc576129fb6129a5565b5b80604052505050565b6000612a0f61260c565b9050612a1b82826129d4565b919050565b600067ffffffffffffffff821115612a3b57612a3a6129a5565b5b602082029050602081019050919050565b600080fd5b6000612a64612a5f84612a20565b612a05565b90508083825260208201905060208402830185811115612a8757612a86612a4c565b5b835b81811015612ab05780612a9c888261269f565b845260208401935050602081019050612a89565b5050509392505050565b600082601f830112612acf57612ace6129a0565b5b8135612adf848260208601612a51565b91505092915050565b600080fd5b600067ffffffffffffffff821115612b0857612b076129a5565b5b612b1182612764565b9050602081019050919050565b82818337600083830152505050565b6000612b40612b3b84612aed565b612a05565b905082815260208101848484011115612b5c57612b5b612ae8565b5b612b67848285612b1e565b509392505050565b600082601f830112612b8457612b836129a0565b5b8135612b94848260208601612b2d565b91505092915050565b600080600080600060a08688031215612bb957612bb8612616565b5b6000612bc788828901612669565b9550506020612bd888828901612669565b945050604086013567ffffffffffffffff811115612bf957612bf861261b565b5b612c0588828901612aba565b935050606086013567ffffffffffffffff811115612c2657612c2561261b565b5b612c3288828901612aba565b925050608086013567ffffffffffffffff811115612c5357612c5261261b565b5b612c5f88828901612b6f565b9150509295509295909350565b60008060408385031215612c8357612c82612616565b5b6000612c9185828601612934565b9250506020612ca285828601612669565b9150509250929050565b600060a082019050612cc160008301886126f4565b8181036020830152612cd38187612775565b90508181036040830152612ce78186612775565b90508181036060830152612cfb8185612775565b90508181036080830152612d0f8184612775565b90509695505050505050565b600067ffffffffffffffff821115612d3657612d356129a5565b5b602082029050602081019050919050565b6000612d5a612d5584612d1b565b612a05565b90508083825260208201905060208402830185811115612d7d57612d7c612a4c565b5b835b81811015612da65780612d928882612669565b845260208401935050602081019050612d7f565b5050509392505050565b600082601f830112612dc557612dc46129a0565b5b8135612dd5848260208601612d47565b91505092915050565b60008060408385031215612df557612df4612616565b5b600083013567ffffffffffffffff811115612e1357612e1261261b565b5b612e1f85828601612db0565b925050602083013567ffffffffffffffff811115612e4057612e3f61261b565b5b612e4c85828601612aba565b9150509250929050565b600081519050919050565b600082825260208201905092915050565b6000819050602082019050919050565b612e8b8161267e565b82525050565b6000612e9d8383612e82565b60208301905092915050565b6000602082019050919050565b6000612ec182612e56565b612ecb8185612e61565b9350612ed683612e72565b8060005b83811015612f07578151612eee8882612e91565b9750612ef983612ea9565b925050600181019050612eda565b5085935050505092915050565b60006020820190508181036000830152612f2e8184612eb6565b905092915050565b600080fd5b60008083601f840112612f5157612f506129a0565b5b8235905067ffffffffffffffff811115612f6e57612f6d612f36565b5b602083019150836001820283011115612f8a57612f89612a4c565b5b9250929050565b60008060008060008060008060008060c08b8d031215612fb457612fb3612616565b5b6000612fc28d828e0161269f565b9a50506020612fd38d828e0161269f565b99505060408b013567ffffffffffffffff811115612ff457612ff361261b565b5b6130008d828e01612f3b565b985098505060608b013567ffffffffffffffff8111156130235761302261261b565b5b61302f8d828e01612f3b565b965096505060808b013567ffffffffffffffff8111156130525761305161261b565b5b61305e8d828e01612f3b565b945094505060a08b013567ffffffffffffffff8111156130815761308061261b565b5b61308d8d828e01612f3b565b92509250509295989b9194979a5092959850565b60006060820190506130b660008301866126f4565b6130c360208301856127ae565b81810360408301526130d58184612775565b9050949350505050565b6130e88161288e565b81146130f357600080fd5b50565b600081359050613105816130df565b92915050565b6000806040838503121561312257613121612616565b5b600061313085828601612669565b9250506020613141858286016130f6565b9150509250929050565b600060808201905061316060008301876126f4565b61316d60208301866126f4565b61317a60408301856126f4565b61318760608301846127ae565b95945050505050565b600080604083850312156131a7576131a6612616565b5b60006131b585828601612669565b92505060206131c685828601612669565b9150509250929050565b6000602082840312156131e6576131e5612616565b5b60006131f484828501612669565b91505092915050565b600081519050919050565b600082825260208201905092915050565b6000819050602082019050919050565b600082825260208201905092915050565b60006132458261271e565b61324f8185613229565b935061325f81856020860161273a565b61326881612764565b840191505092915050565b600060a08301600083015161328b6000860182612e82565b50602083015184820360208601526132a3828261323a565b915050604083015184820360408601526132bd828261323a565b915050606083015184820360608601526132d7828261323a565b915050608083015184820360808601526132f1828261323a565b9150508091505092915050565b600061330a8383613273565b905092915050565b6000602082019050919050565b600061332a826131fd565b6133348185613208565b93508360208202850161334685613219565b8060005b85811015613382578484038952815161336385826132fe565b945061336e83613312565b925060208a0199505060018101905061334a565b50829750879550505050505092915050565b600060208201905081810360008301526133ae818461331f565b905092915050565b600080600080600060a086880312156133d2576133d1612616565b5b60006133e088828901612669565b95505060206133f188828901612669565b94505060406134028882890161269f565b93505060606134138882890161269f565b925050608086013567ffffffffffffffff8111156134345761343361261b565b5b61344088828901612b6f565b9150509295509295909350565b7f4e487b7100000000000000000000000000000000000000000000000000000000600052602260045260246000fd5b6000600282049050600182168061349457607f821691505b6020821081036134a7576134a661344d565b5b50919050565b60006040820190506134c260008301856127ae565b6134cf60208301846127ae565b9392505050565b60006040820190506134eb60008301856126f4565b6134f860208301846126f4565b9392505050565b7f4e487b7100000000000000000000000000000000000000000000000000000000600052603260045260246000fd5b60008190508160005260206000209050919050565b60006020601f8301049050919050565b600082821b905092915050565b6000600883026135907fffffffffffffffffffffffffffffffffffffffffffffffffffffffffffffffff82613553565b61359a8683613553565b95508019841693508086168417925050509392505050565b6000819050919050565b60006135d76135d26135cd8461267e565b6135b2565b61267e565b9050919050565b6000819050919050565b6135f1836135bc565b6136056135fd826135de565b848454613560565b825550505050565b600090565b61361a61360d565b6136258184846135e8565b505050565b5b818110156136495761363e600082613612565b60018101905061362b565b5050565b601f82111561368e5761365f8161352e565b61366884613543565b81016020851015613677578190505b61368b61368385613543565b83018261362a565b50505b505050565b600082821c905092915050565b60006136b160001984600802613693565b1980831691505092915050565b60006136ca83836136a0565b9150826002028217905092915050565b6136e38261271e565b67ffffffffffffffff8111156136fc576136fb6129a5565b5b613706825461347c565b61371182828561364d565b600060209050601f8311600181146137445760008415613732578287015190505b61373c85826136be565b8655506137a4565b601f1984166137528661352e565b60005b8281101561377a57848901518255600182019150602085019450602081019050613755565b868310156137975784890151613793601f8916826136a0565b8355505b6001600288020188555050505b505050505050565b60006137b88385612729565b93506137c5838584612b1e565b6137ce83612764565b840190509392505050565b600060c0820190506137ee600083018d6126f4565b8181036020830152613801818b8d6137ac565b9050818103604083015261381681898b6137ac565b9050818103606083015261382b8187896137ac565b905081810360808301526138408185876137ac565b905061384f60a08301846127ae565b9b9a5050505050505050505050565b7f4e487b7100000000000000000000000000000000000000000000000000000000600052601160045260246000fd5b60006138988261267e565b91506138a38361267e565b92508282019050808211156138bb576138ba61385e565b5b92915050565b60006020820190506138d660008301846127ae565b92915050565b60006040820190506138f160008301856127ae565b6138fe6020830184612976565b9392505050565b600060808201905061391a60008301876127ae565b61392760208301866126f4565b61393460408301856126f4565b61394160608301846126f4565b95945050505050565b600060408201905081810360008301526139648185612eb6565b905081810360208301526139788184612eb6565b90509392505050565b600081519050919050565b600082825260208201905092915050565b60006139a882613981565b6139b2818561398c565b93506139c281856020860161273a565b6139cb81612764565b840191505092915050565b600060a0820190506139eb60008301886127ae565b6139f860208301876127ae565b613a0560408301866126f4565b613a1260608301856126f4565b8181036080830152613a24818461399d565b90509695505050505050565b600081519050613a3f81612835565b92915050565b600060208284031215613a5b57613a5a612616565b5b6000613a6984828501613a30565b91505092915050565b600060a082019050613a8760008301886127ae565b613a9460208301876127ae565b8181036040830152613aa68186612eb6565b90508181036060830152613aba8185612eb6565b90508181036080830152613ace818461399d565b9050969550505050505056fea26469706673582212200c8425e98ac5c41df5a6d1f276884c91464bfda4b3de650b17679c2479a6a6b864736f6c634300081b0033",
  "linkReferences": {},
  "deployedLinkReferences": {}
}