{
  "_format": "hh-sol-artifact-1",
  "contractName": "CryptoSurvey",
  "sourceName": "contracts/CryptoSurvey.sol",
  "abi": [
    {
      "inputs": [],
      "stateMutability": "nonpayable",
      "type": "constructor"
    },
    {
      "inputs": [],
      "name": "AccessControlBadConfirmation",
      "type": "error"
    },
    {
      "inputs": [
        {
          "internalType": "address",
          "name": "account",
          "type": "address"
        },
        {
          "internalType": "bytes32",
          "name": "neededRole",
          "type": "bytes32"
        }
      ],
      "name": "AccessControlUnauthorizedAccount",
      "type": "error"
    },
    {
      "inputs": [
        {
          "internalType": "address",
          "name": "sender",
          "type": "address"
        },
        {
          "internalType": "uint256",
          "name": "balance",
          "type": "uint256"
        },
        {
          "internalType": "uint256",
          "name": "needed",
          "type": "uint256"
        },
        {
          "internalType": "uint256",
          "name": "tokenId",
          "type": "uint256"
        }
      ],
      "name": "ERC1155InsufficientBalance",
      "type": "error"
    },
    {
      "inputs": [
        {
          "internalType": "address",
          "name": "approver",
          "type": "address"
        }
      ],
      "name": "ERC1155InvalidApprover",
      "type": "error"
    },
    {
      "inputs": [
        {
          "internalType": "uint256",
          "name": "idsLength",
          "type": "uint256"
        },
        {
          "internalType": "uint256",
          "name": "valuesLength",
          "type": "uint256"
        }
      ],
      "name": "ERC1155InvalidArrayLength",
      "type": "error"
    },
    {
      "inputs": [
        {
          "internalType": "address",
          "name": "operator",
          "type": "address"
        }
      ],
      "name": "ERC1155InvalidOperator",
      "type": "error"
    },
    {
      "inputs": [
        {
          "internalType": "address",
          "name": "receiver",
          "type": "address"
        }
      ],
      "name": "ERC1155InvalidReceiver",
      "type": "error"
    },
    {
      "inputs": [
        {
          "internalType": "address",
          "name": "sender",
          "type": "address"
        }
      ],
      "name": "ERC1155InvalidSender",
      "type": "error"
    },
    {
      "inputs": [
        {
          "internalType": "address",
          "name": "operator",
          "type": "address"
        },
        {
          "internalType": "address",
          "name": "owner",
          "type": "address"
        }
      ],
      "name": "ERC1155MissingApprovalForAll",
      "type": "error"
    },
    {
      "anonymous": false,
      "inputs": [
        {
          "indexed": true,
          "internalType": "address",
          "name": "account",
          "type": "address"
        },
        {
          "indexed": true,
          "internalType": "address",
          "name": "operator",
          "type": "address"
        },
        {
          "indexed": false,
          "internalType": "bool",
          "name": "approved",
          "type": "bool"
        }
      ],
      "name": "ApprovalForAll",
      "type": "event"
    },
    {
      "anonymous": false,
      "inputs": [
        {
          "indexed": false,
          "internalType": "uint256",
          "name": "surveyId",
          "type": "uint256"
        },
        {
          "indexed": false,
          "internalType": "address",
          "name": "requestAddress",
          "type": "address"
        },
        {
          "indexed": false,
          "internalType": "string",
          "name": "encryptedCID",
          "type": "string"
        }
      ],
      "name": "CreatePermissionEvent",
      "type": "event"
    },
    {
      "anonymous": false,
      "inputs": [
        {
          "indexed": false,
          "internalType": "uint256",
          "name": "surveyId",
          "type": "uint256"
        },
        {
          "indexed": false,
          "internalType": "address",
          "name": "requestAddress",
          "type": "address"
        },
        {
          "indexed": false,
          "internalType": "string",
          "name": "description",
          "type": "string"
        },
        {
          "indexed": false,
          "internalType": "string",
          "name": "publicKey",
          "type": "string"
        }
      ],
      "name": "CreateRequestEvent",
      "type": "event"
    },
    {
      "anonymous": false,
      "inputs": [
        {
          "indexed": false,
          "internalType": "uint256",
          "name": "surveyId",
          "type": "uint256"
        },
        {
          "indexed": false,
          "internalType": "string",
          "name": "name",
          "type": "string"
        },
        {
          "indexed": false,
          "internalType": "string",
          "name": "description",
          "type": "string"
        },
        {
          "indexed": false,
          "internalType": "string",
          "name": "imageCID",
          "type": "string"
        },
        {
          "indexed": false,
          "internalType": "string",
          "name": "encryptedCID",
          "type": "string"
        },
        {
          "indexed": false,
          "internalType": "address",
          "name": "surveyAddress",
          "type": "address"
        }
      ],
      "name": "CreateSurveyEvent",
      "type": "event"
    },
    {
      "anonymous": false,
      "inputs": [
        {
          "indexed": false,
          "internalType": "uint256",
          "name": "surveyId",
          "type": "uint256"
        },
        {
          "indexed": false,
          "internalType": "uint256",
          "name": "maxReply",
          "type": "uint256"
        },
        {
          "indexed": false,
          "internalType": "uint256",
          "name": "incentive",
          "type": "uint256"
        },
        {
          "indexed": false,
          "internalType": "address",
          "name": "owner",
          "type": "address"
        }
      ],
      "name": "CreateSurveyMetadataEvent",
      "type": "event"
    },
    {
      "anonymous": false,
      "inputs": [
        {
          "indexed": true,
          "internalType": "bytes32",
          "name": "role",
          "type": "bytes32"
        },
        {
          "indexed": true,
          "internalType": "bytes32",
          "name": "previousAdminRole",
          "type": "bytes32"
        },
        {
          "indexed": true,
          "internalType": "bytes32",
          "name": "newAdminRole",
          "type": "bytes32"
        }
      ],
      "name": "RoleAdminChanged",
      "type": "event"
    },
    {
      "anonymous": false,
      "inputs": [
        {
          "indexed": true,
          "internalType": "bytes32",
          "name": "role",
          "type": "bytes32"
        },
        {
          "indexed": true,
          "internalType": "address",
          "name": "account",
          "type": "address"
        },
        {
          "indexed": true,
          "internalType": "address",
          "name": "sender",
          "type": "address"
        }
      ],
      "name": "RoleGranted",
      "type": "event"
    },
    {
      "anonymous": false,
      "inputs": [
        {
          "indexed": true,
          "internalType": "bytes32",
          "name": "role",
          "type": "bytes32"
        },
        {
          "indexed": true,
          "internalType": "address",
          "name": "account",
          "type": "address"
        },
        {
          "indexed": true,
          "internalType": "address",
          "name": "sender",
          "type": "address"
        }
      ],
      "name": "RoleRevoked",
      "type": "event"
    },
    {
      "anonymous": false,
      "inputs": [
        {
          "indexed": true,
          "internalType": "address",
          "name": "operator",
          "type": "address"
        },
        {
          "indexed": true,
          "internalType": "address",
          "name": "from",
          "type": "address"
        },
        {
          "indexed": true,
          "internalType": "address",
          "name": "to",
          "type": "address"
        },
        {
          "indexed": false,
          "internalType": "uint256[]",
          "name": "ids",
          "type": "uint256[]"
        },
        {
          "indexed": false,
          "internalType": "uint256[]",
          "name": "values",
          "type": "uint256[]"
        }
      ],
      "name": "TransferBatch",
      "type": "event"
    },
    {
      "anonymous": false,
      "inputs": [
        {
          "indexed": true,
          "internalType": "address",
          "name": "operator",
          "type": "address"
        },
        {
          "indexed": true,
          "internalType": "address",
          "name": "from",
          "type": "address"
        },
        {
          "indexed": true,
          "internalType": "address",
          "name": "to",
          "type": "address"
        },
        {
          "indexed": false,
          "internalType": "uint256",
          "name": "id",
          "type": "uint256"
        },
        {
          "indexed": false,
          "internalType": "uint256",
          "name": "value",
          "type": "uint256"
        }
      ],
      "name": "TransferSingle",
      "type": "event"
    },
    {
      "anonymous": false,
      "inputs": [
        {
          "indexed": false,
          "internalType": "string",
          "name": "value",
          "type": "string"
        },
        {
          "indexed": true,
          "internalType": "uint256",
          "name": "id",
          "type": "uint256"
        }
      ],
      "name": "URI",
      "type": "event"
    },
    {
      "inputs": [],
      "name": "CSURVEY",
      "outputs": [
        {
          "internalType": "uint256",
          "name": "",
          "type": "uint256"
        }
      ],
      "stateMutability": "view",
      "type": "function"
    },
    {
      "inputs": [],
      "name": "DEFAULT_ADMIN_ROLE",
      "outputs": [
        {
          "internalType": "bytes32",
          "name": "",
          "type": "bytes32"
        }
      ],
      "stateMutability": "view",
      "type": "function"
    },
    {
      "inputs": [
        {
          "internalType": "address",
          "name": "account",
          "type": "address"
        },
        {
          "internalType": "uint256",
          "name": "id",
          "type": "uint256"
        }
      ],
      "name": "balanceOf",
      "outputs": [
        {
          "internalType": "uint256",
          "name": "",
          "type": "uint256"
        }
      ],
      "stateMutability": "view",
      "type": "function"
    },
    {
      "inputs": [
        {
          "internalType": "address[]",
          "name": "accounts",
          "type": "address[]"
        },
        {
          "internalType": "uint256[]",
          "name": "ids",
          "type": "uint256[]"
        }
      ],
      "name": "balanceOfBatch",
      "outputs": [
        {
          "internalType": "uint256[]",
          "name": "",
          "type": "uint256[]"
        }
      ],
      "stateMutability": "view",
      "type": "function"
    },
    {
      "inputs": [
        {
          "internalType": "uint256",
          "name": "surveyId",
          "type": "uint256"
        },
        {
          "internalType": "address",
          "name": "surveyAddress",
          "type": "address"
        },
        {
          "internalType": "string",
          "name": "description",
          "type": "string"
        },
        {
          "internalType": "string",
          "name": "publicKey",
          "type": "string"
        }
      ],
      "name": "createRequest",
      "outputs": [],
      "stateMutability": "nonpayable",
      "type": "function"
    },
    {
      "inputs": [
        {
          "internalType": "uint256",
          "name": "maxReply",
          "type": "uint256"
        },
        {
          "internalType": "uint256",
          "name": "incentive",
          "type": "uint256"
        },
        {
          "internalType": "string",
          "name": "name",
          "type": "string"
        },
        {
          "internalType": "string",
          "name": "description",
          "type": "string"
        },
        {
          "internalType": "string",
          "name": "imageCID",
          "type": "string"
        },
        {
          "internalType": "string",
          "name": "encryptedCID",
          "type": "string"
        }
      ],
      "name": "createSurvey",
      "outputs": [],
      "stateMutability": "nonpayable",
      "type": "function"
    },
    {
      "inputs": [
        {
          "internalType": "bytes32",
          "name": "role",
          "type": "bytes32"
        }
      ],
      "name": "getRoleAdmin",
      "outputs": [
        {
          "internalType": "bytes32",
          "name": "",
          "type": "bytes32"
        }
      ],
      "stateMutability": "view",
      "type": "function"
    },
    {
      "inputs": [
        {
          "internalType": "address",
          "name": "_address",
          "type": "address"
        }
      ],
      "name": "getSurveysForAddress",
      "outputs": [
        {
          "components": [
            {
              "internalType": "uint256",
              "name": "surveyId",
              "type": "uint256"
            },
            {
              "internalType": "string",
              "name": "name",
              "type": "string"
            },
            {
              "internalType": "string",
              "name": "description",
              "type": "string"
            },
            {
              "internalType": "string",
              "name": "imageCID",
              "type": "string"
            },
            {
              "internalType": "string",
              "name": "encryptedCID",
              "type": "string"
            }
          ],
          "internalType": "struct CryptoSurvey.Survey[]",
          "name": "",
          "type": "tuple[]"
        }
      ],
      "stateMutability": "view",
      "type": "function"
    },
    {
      "inputs": [
        {
          "internalType": "bytes32",
          "name": "role",
          "type": "bytes32"
        },
        {
          "internalType": "address",
          "name": "account",
          "type": "address"
        }
      ],
      "name": "grantRole",
      "outputs": [],
      "stateMutability": "nonpayable",
      "type": "function"
    },
    {
      "inputs": [
        {
          "internalType": "bytes32",
          "name": "role",
          "type": "bytes32"
        },
        {
          "internalType": "address",
          "name": "account",
          "type": "address"
        }
      ],
      "name": "hasRole",
      "outputs": [
        {
          "internalType": "bool",
          "name": "",
          "type": "bool"
        }
      ],
      "stateMutability": "view",
      "type": "function"
    },
    {
      "inputs": [
        {
          "internalType": "address",
          "name": "account",
          "type": "address"
        },
        {
          "internalType": "address",
          "name": "operator",
          "type": "address"
        }
      ],
      "name": "isApprovedForAll",
      "outputs": [
        {
          "internalType": "bool",
          "name": "",
          "type": "bool"
        }
      ],
      "stateMutability": "view",
      "type": "function"
    },
    {
      "inputs": [
        {
          "internalType": "bytes32",
          "name": "role",
          "type": "bytes32"
        },
        {
          "internalType": "address",
          "name": "callerConfirmation",
          "type": "address"
        }
      ],
      "name": "renounceRole",
      "outputs": [],
      "stateMutability": "nonpayable",
      "type": "function"
    },
    {
      "inputs": [
        {
          "internalType": "address",
          "name": "",
          "type": "address"
        },
        {
          "internalType": "uint256",
          "name": "",
          "type": "uint256"
        }
      ],
      "name": "requests",
      "outputs": [
        {
          "internalType": "uint256",
          "name": "surveyId",
          "type": "uint256"
        },
        {
          "internalType": "address",
          "name": "requestAddress",
          "type": "address"
        },
        {
          "internalType": "string",
          "name": "description",
          "type": "string"
        },
        {
          "internalType": "string",
          "name": "publicKey",
          "type": "string"
        }
      ],
      "stateMutability": "view",
      "type": "function"
    },
    {
      "inputs": [
        {
          "internalType": "bytes32",
          "name": "role",
          "type": "bytes32"
        },
        {
          "internalType": "address",
          "name": "account",
          "type": "address"
        }
      ],
      "name": "revokeRole",
      "outputs": [],
      "stateMutability": "nonpayable",
      "type": "function"
    },
    {
      "inputs": [
        {
          "internalType": "address",
          "name": "from",
          "type": "address"
        },
        {
          "internalType": "address",
          "name": "to",
          "type": "address"
        },
        {
          "internalType": "uint256[]",
          "name": "ids",
          "type": "uint256[]"
        },
        {
          "internalType": "uint256[]",
          "name": "values",
          "type": "uint256[]"
        },
        {
          "internalType": "bytes",
          "name": "data",
          "type": "bytes"
        }
      ],
      "name": "safeBatchTransferFrom",
      "outputs": [],
      "stateMutability": "nonpayable",
      "type": "function"
    },
    {
      "inputs": [
        {
          "internalType": "address",
          "name": "from",
          "type": "address"
        },
        {
          "internalType": "address",
          "name": "to",
          "type": "address"
        },
        {
          "internalType": "uint256",
          "name": "id",
          "type": "uint256"
        },
        {
          "internalType": "uint256",
          "name": "value",
          "type": "uint256"
        },
        {
          "internalType": "bytes",
          "name": "data",
          "type": "bytes"
        }
      ],
      "name": "safeTransferFrom",
      "outputs": [],
      "stateMutability": "nonpayable",
      "type": "function"
    },
    {
      "inputs": [
        {
          "internalType": "address",
          "name": "operator",
          "type": "address"
        },
        {
          "internalType": "bool",
          "name": "approved",
          "type": "bool"
        }
      ],
      "name": "setApprovalForAll",
      "outputs": [],
      "stateMutability": "nonpayable",
      "type": "function"
    },
    {
      "inputs": [
        {
          "internalType": "bytes4",
          "name": "interfaceId",
          "type": "bytes4"
        }
      ],
      "name": "supportsInterface",
      "outputs": [
        {
          "internalType": "bool",
          "name": "",
          "type": "bool"
        }
      ],
      "stateMutability": "view",
      "type": "function"
    },
    {
      "inputs": [
        {
          "internalType": "uint256",
          "name": "",
          "type": "uint256"
        }
      ],
      "name": "surveyMetadata",
      "outputs": [
        {
          "internalType": "uint256",
          "name": "surveyId",
          "type": "uint256"
        },
        {
          "internalType": "uint256",
          "name": "maxReply",
          "type": "uint256"
        },
        {
          "internalType": "uint256",
          "name": "incentive",
          "type": "uint256"
        },
        {
          "internalType": "address",
          "name": "owner",
          "type": "address"
        }
      ],
      "stateMutability": "view",
      "type": "function"
    },
    {
      "inputs": [
        {
          "internalType": "address",
          "name": "",
          "type": "address"
        },
        {
          "internalType": "uint256",
          "name": "",
          "type": "uint256"
        }
      ],
      "name": "surveyReplies",
      "outputs": [
        {
          "internalType": "uint256",
          "name": "surveyId",
          "type": "uint256"
        },
        {
          "internalType": "uint256",
          "name": "incentive",
          "type": "uint256"
        },
        {
          "internalType": "string",
          "name": "encryptedCID",
          "type": "string"
        },
        {
          "internalType": "address",
          "name": "replyAddress",
          "type": "address"
        }
      ],
      "stateMutability": "view",
      "type": "function"
    },
    {
      "inputs": [
        {
          "internalType": "address",
          "name": "",
          "type": "address"
        },
        {
          "internalType": "uint256",
          "name": "",
          "type": "uint256"
        }
      ],
      "name": "surveys",
      "outputs": [
        {
          "internalType": "uint256",
          "name": "surveyId",
          "type": "uint256"
        },
        {
          "internalType": "string",
          "name": "name",
          "type": "string"
        },
        {
          "internalType": "string",
          "name": "description",
          "type": "string"
        },
        {
          "internalType": "string",
          "name": "imageCID",
          "type": "string"
        },
        {
          "internalType": "string",
          "name": "encryptedCID",
          "type": "string"
        }
      ],
      "stateMutability": "view",
      "type": "function"
    },
    {
      "inputs": [
        {
          "internalType": "uint256",
          "name": "",
          "type": "uint256"
        }
      ],
      "name": "uri",
      "outputs": [
        {
          "internalType": "string",
          "name": "",
          "type": "string"
        }
      ],
      "stateMutability": "view",
      "type": "function"
    }
  ],
  "bytecode": "0x6080604052600160045534801561001557600080fd5b50604051806020016040528060008152506100358161003b60201b60201c565b50610370565b806003908161004a919061029e565b5050565b600081519050919050565b7f4e487b7100000000000000000000000000000000000000000000000000000000600052604160045260246000fd5b7f4e487b7100000000000000000000000000000000000000000000000000000000600052602260045260246000fd5b600060028204905060018216806100cf57607f821691505b6020821081036100e2576100e1610088565b5b50919050565b60008190508160005260206000209050919050565b60006020601f8301049050919050565b600082821b905092915050565b60006008830261014a7fffffffffffffffffffffffffffffffffffffffffffffffffffffffffffffffff8261010d565b610154868361010d565b95508019841693508086168417925050509392505050565b6000819050919050565b6000819050919050565b600061019b6101966101918461016c565b610176565b61016c565b9050919050565b6000819050919050565b6101b583610180565b6101c96101c1826101a2565b84845461011a565b825550505050565b600090565b6101de6101d1565b6101e98184846101ac565b505050565b5b8181101561020d576102026000826101d6565b6001810190506101ef565b5050565b601f82111561025257610223816100e8565b61022c846100fd565b8101602085101561023b578190505b61024f610247856100fd565b8301826101ee565b50505b505050565b600082821c905092915050565b600061027560001984600802610257565b1980831691505092915050565b600061028e8383610264565b9150826002028217905092915050565b6102a78261004e565b67ffffffffffffffff8111156102c0576102bf610059565b5b6102ca82546100b7565b6102d5828285610211565b600060209050601f83116001811461030857600084156102f6578287015190505b6103008582610282565b865550610368565b601f198416610316866100e8565b60005b8281101561033e57848901518255600182019150602085019450602081019050610319565b8683101561035b5784890151610357601f891682610264565b8355505b6001600288020188555050505b505050505050565b6141bc8061037f6000396000f3fe608060405234801561001057600080fd5b50600436106101415760003560e01c806391d14854116100b8578063c62fa9d61161007c578063c62fa9d6146103c6578063d547741f146103f9578063e985e9c514610415578063f0d4de3714610445578063f242432a14610475578063ffea4c821461049157610141565b806391d148541461030d5780639eabc56a1461033d5780639ecebe2a14610359578063a217fddf1461038c578063a22cb465146103aa57610141565b80632eb2c2d61161010a5780632eb2c2d6146102395780632f2ff15d1461025557806336568abe146102715780633797e4861461028d5780634dc387f5146102c15780634e1273f4146102dd57610141565b8062fdd58e1461014657806301e80cb41461017657806301ffc9a7146101a95780630e89341c146101d9578063248a9ca314610209575b600080fd5b610160600480360381019061015b9190612abd565b6104af565b60405161016d9190612b0c565b60405180910390f35b610190600480360381019061018b9190612abd565b61050a565b6040516101a09493929190612bc6565b60405180910390f35b6101c360048036038101906101be9190612c6a565b6105ff565b6040516101d09190612cb2565b60405180910390f35b6101f360048036038101906101ee9190612ccd565b6106e1565b6040516102009190612cfa565b60405180910390f35b610223600480360381019061021e9190612d52565b610775565b6040516102309190612d8e565b60405180910390f35b610253600480360381019061024e9190612fa6565b610794565b005b61026f600480360381019061026a9190613075565b61083c565b005b61028b60048036038101906102869190613075565b61085e565b005b6102a760048036038101906102a29190612abd565b6108d9565b6040516102b89594939291906130b5565b60405180910390f35b6102db60048036038101906102d6919061317f565b610b4c565b005b6102f760048036038101906102f291906132e9565b610e9f565b604051610304919061341f565b60405180910390f35b61032760048036038101906103229190613075565b610fa8565b6040516103349190612cb2565b60405180910390f35b61035760048036038101906103529190613441565b611012565b005b610373600480360381019061036e9190612abd565b611399565b6040516103839493929190613551565b60405180910390f35b610394611516565b6040516103a19190612d8e565b60405180910390f35b6103c460048036038101906103bf91906135d0565b61151d565b005b6103e060048036038101906103db9190612ccd565b611533565b6040516103f09493929190613610565b60405180910390f35b610413600480360381019061040e9190613075565b611583565b005b61042f600480360381019061042a9190613655565b6115a5565b60405161043c9190612cb2565b60405180910390f35b61045f600480360381019061045a9190613695565b611639565b60405161046c9190613859565b60405180910390f35b61048f600480360381019061048a919061387b565b611929565b005b6104996119d1565b6040516104a69190612b0c565b60405180910390f35b60006001600083815260200190815260200160002060008473ffffffffffffffffffffffffffffffffffffffff1673ffffffffffffffffffffffffffffffffffffffff16815260200190815260200160002054905092915050565b6006602052816000526040600020818154811061052657600080fd5b90600052602060002090600402016000915091505080600001549080600101549080600201805461055690613941565b80601f016020809104026020016040519081016040528092919081815260200182805461058290613941565b80156105cf5780601f106105a4576101008083540402835291602001916105cf565b820191906000526020600020905b8154815290600101906020018083116105b257829003601f168201915b5050505050908060030160009054906101000a900473ffffffffffffffffffffffffffffffffffffffff16905084565b60007f7965db0b000000000000000000000000000000000000000000000000000000007bffffffffffffffffffffffffffffffffffffffffffffffffffffffff1916827bffffffffffffffffffffffffffffffffffffffffffffffffffffffff191614806106ca57507fd9b67a26000000000000000000000000000000000000000000000000000000007bffffffffffffffffffffffffffffffffffffffffffffffffffffffff1916827bffffffffffffffffffffffffffffffffffffffffffffffffffffffff1916145b806106da57506106d9826119d6565b5b9050919050565b6060600380546106f090613941565b80601f016020809104026020016040519081016040528092919081815260200182805461071c90613941565b80156107695780601f1061073e57610100808354040283529160200191610769565b820191906000526020600020905b81548152906001019060200180831161074c57829003601f168201915b50505050509050919050565b6000806000838152602001908152602001600020600101549050919050565b600061079e611ab8565b90508073ffffffffffffffffffffffffffffffffffffffff168673ffffffffffffffffffffffffffffffffffffffff16141580156107e357506107e186826115a5565b155b156108275780866040517fe237d92200000000000000000000000000000000000000000000000000000000815260040161081e929190613972565b60405180910390fd5b6108348686868686611ac0565b505050505050565b61084582610775565b61084e81611bb8565b6108588383611bcc565b50505050565b610866611ab8565b73ffffffffffffffffffffffffffffffffffffffff168173ffffffffffffffffffffffffffffffffffffffff16146108ca576040517f6697b23200000000000000000000000000000000000000000000000000000000815260040160405180910390fd5b6108d48282611cbd565b505050565b600560205281600052604060002081815481106108f557600080fd5b90600052602060002090600502016000915091505080600001549080600101805461091f90613941565b80601f016020809104026020016040519081016040528092919081815260200182805461094b90613941565b80156109985780601f1061096d57610100808354040283529160200191610998565b820191906000526020600020905b81548152906001019060200180831161097b57829003601f168201915b5050505050908060020180546109ad90613941565b80601f01602080910402602001604051908101604052809291908181526020018280546109d990613941565b8015610a265780601f106109fb57610100808354040283529160200191610a26565b820191906000526020600020905b815481529060010190602001808311610a0957829003601f168201915b505050505090806003018054610a3b90613941565b80601f0160208091040260200160405190810160405280929190818152602001828054610a6790613941565b8015610ab45780601f10610a8957610100808354040283529160200191610ab4565b820191906000526020600020905b815481529060010190602001808311610a9757829003601f168201915b505050505090806004018054610ac990613941565b80601f0160208091040260200160405190810160405280929190818152602001828054610af590613941565b8015610b425780601f10610b1757610100808354040283529160200191610b42565b820191906000526020600020905b815481529060010190602001808311610b2557829003601f168201915b5050505050905085565b6000610b5833886104af565b14610b98576040517f08c379a0000000000000000000000000000000000000000000000000000000008152600401610b8f90613a0d565b60405180910390fd5b6000610bb033600189610bab9190613a5c565b6104af565b14610bf0576040517f08c379a0000000000000000000000000000000000000000000000000000000008152600401610be790613b02565b60405180910390fd5b6007600087815260200190815260200160002060030160009054906101000a900473ffffffffffffffffffffffffffffffffffffffff1673ffffffffffffffffffffffffffffffffffffffff163373ffffffffffffffffffffffffffffffffffffffff1603610c94576040517f08c379a0000000000000000000000000000000000000000000000000000000008152600401610c8b90613b6e565b60405180910390fd5b610cb03387600160405180602001604052806000815250611daf565b600860008673ffffffffffffffffffffffffffffffffffffffff1673ffffffffffffffffffffffffffffffffffffffff16815260200190815260200160002060405180608001604052808881526020013373ffffffffffffffffffffffffffffffffffffffff16815260200186868080601f016020809104026020016040519081016040528093929190818152602001838380828437600081840152601f19601f82011690508083019250505050505050815260200184848080601f016020809104026020016040519081016040528093929190818152602001838380828437600081840152601f19601f8201169050808301925050505050505081525090806001815401808255809150506001900390600052602060002090600402016000909190919091506000820151816000015560208201518160010160006101000a81548173ffffffffffffffffffffffffffffffffffffffff021916908373ffffffffffffffffffffffffffffffffffffffff1602179055506040820151816002019081610e3d9190613d3a565b506060820151816003019081610e539190613d3a565b5050507f27933379a052f5f5557bc5c1a42ca57f428f867f050e2a69d2100056ee016805863386868686604051610e8f96959493929190613e39565b60405180910390a1505050505050565b60608151835114610eeb57815183516040517f5b059991000000000000000000000000000000000000000000000000000000008152600401610ee2929190613e90565b60405180910390fd5b6000835167ffffffffffffffff811115610f0857610f07612dae565b5b604051908082528060200260200182016040528015610f365781602001602082028036833780820191505090505b50905060005b8451811015610f9d57610f73610f5b8287611e4890919063ffffffff16565b610f6e8387611e5c90919063ffffffff16565b6104af565b828281518110610f8657610f85613eb9565b5b602002602001018181525050806001019050610f3c565b508091505092915050565b600080600084815260200190815260200160002060000160008373ffffffffffffffffffffffffffffffffffffffff1673ffffffffffffffffffffffffffffffffffffffff16815260200190815260200160002060009054906101000a900460ff16905092915050565b61102e3360008b60405180602001604052806000815250611daf565b600560003373ffffffffffffffffffffffffffffffffffffffff1673ffffffffffffffffffffffffffffffffffffffff1681526020019081526020016000206040518060a0016040528060045481526020018a8a8080601f016020809104026020016040519081016040528093929190818152602001838380828437600081840152601f19601f82011690508083019250505050505050815260200188888080601f016020809104026020016040519081016040528093929190818152602001838380828437600081840152601f19601f82011690508083019250505050505050815260200186868080601f016020809104026020016040519081016040528093929190818152602001838380828437600081840152601f19601f82011690508083019250505050505050815260200184848080601f016020809104026020016040519081016040528093929190818152602001838380828437600081840152601f19601f8201169050808301925050505050505081525090806001815401808255809150506001900390600052602060002090600502016000909190919091506000820151816000015560208201518160010190816111ee9190613d3a565b5060408201518160020190816112049190613d3a565b50606082015181600301908161121a9190613d3a565b5060808201518160040190816112309190613d3a565b505050604051806080016040528060045481526020018b81526020018a81526020013373ffffffffffffffffffffffffffffffffffffffff1681525060076000600454815260200190815260200160002060008201518160000155602082015181600101556040820151816002015560608201518160030160006101000a81548173ffffffffffffffffffffffffffffffffffffffff021916908373ffffffffffffffffffffffffffffffffffffffff1602179055509050507faa6bef3bad617a58e34dd4e641462c367b1061588eb73a8ffed2032dd526c56760045489898989898989893360405161132c9a99989796959493929190613ee8565b60405180910390a17fecbe31ac198500ae06291c26441a2e9514f84b27c5b8a28b580e54dccc4d746b6004548b8b3360405161136b9493929190613610565b60405180910390a16002600460008282546113869190613a5c565b9250508190555050505050505050505050565b600860205281600052604060002081815481106113b557600080fd5b9060005260206000209060040201600091509150508060000154908060010160009054906101000a900473ffffffffffffffffffffffffffffffffffffffff169080600201805461140590613941565b80601f016020809104026020016040519081016040528092919081815260200182805461143190613941565b801561147e5780601f106114535761010080835404028352916020019161147e565b820191906000526020600020905b81548152906001019060200180831161146157829003601f168201915b50505050509080600301805461149390613941565b80601f01602080910402602001604051908101604052809291908181526020018280546114bf90613941565b801561150c5780601f106114e15761010080835404028352916020019161150c565b820191906000526020600020905b8154815290600101906020018083116114ef57829003601f168201915b5050505050905084565b6000801b81565b61152f611528611ab8565b8383611e70565b5050565b60076020528060005260406000206000915090508060000154908060010154908060020154908060030160009054906101000a900473ffffffffffffffffffffffffffffffffffffffff16905084565b61158c82610775565b61159581611bb8565b61159f8383611cbd565b50505050565b6000600260008473ffffffffffffffffffffffffffffffffffffffff1673ffffffffffffffffffffffffffffffffffffffff16815260200190815260200160002060008373ffffffffffffffffffffffffffffffffffffffff1673ffffffffffffffffffffffffffffffffffffffff16815260200190815260200160002060009054906101000a900460ff16905092915050565b6060600560008373ffffffffffffffffffffffffffffffffffffffff1673ffffffffffffffffffffffffffffffffffffffff168152602001908152602001600020805480602002602001604051908101604052809291908181526020016000905b8282101561191e57838290600052602060002090600502016040518060a0016040529081600082015481526020016001820180546116d790613941565b80601f016020809104026020016040519081016040528092919081815260200182805461170390613941565b80156117505780601f1061172557610100808354040283529160200191611750565b820191906000526020600020905b81548152906001019060200180831161173357829003601f168201915b5050505050815260200160028201805461176990613941565b80601f016020809104026020016040519081016040528092919081815260200182805461179590613941565b80156117e25780601f106117b7576101008083540402835291602001916117e2565b820191906000526020600020905b8154815290600101906020018083116117c557829003601f168201915b505050505081526020016003820180546117fb90613941565b80601f016020809104026020016040519081016040528092919081815260200182805461182790613941565b80156118745780601f1061184957610100808354040283529160200191611874565b820191906000526020600020905b81548152906001019060200180831161185757829003601f168201915b5050505050815260200160048201805461188d90613941565b80601f01602080910402602001604051908101604052809291908181526020018280546118b990613941565b80156119065780601f106118db57610100808354040283529160200191611906565b820191906000526020600020905b8154815290600101906020018083116118e957829003601f168201915b5050505050815250508152602001906001019061169a565b505050509050919050565b6000611933611ab8565b90508073ffffffffffffffffffffffffffffffffffffffff168673ffffffffffffffffffffffffffffffffffffffff1614158015611978575061197686826115a5565b155b156119bc5780866040517fe237d9220000000000000000000000000000000000000000000000000000000081526004016119b3929190613972565b60405180910390fd5b6119c98686868686611fe0565b505050505050565b600081565b60007fd9b67a26000000000000000000000000000000000000000000000000000000007bffffffffffffffffffffffffffffffffffffffffffffffffffffffff1916827bffffffffffffffffffffffffffffffffffffffffffffffffffffffff19161480611aa157507f0e89341c000000000000000000000000000000000000000000000000000000007bffffffffffffffffffffffffffffffffffffffffffffffffffffffff1916827bffffffffffffffffffffffffffffffffffffffffffffffffffffffff1916145b80611ab15750611ab0826120eb565b5b9050919050565b600033905090565b600073ffffffffffffffffffffffffffffffffffffffff168473ffffffffffffffffffffffffffffffffffffffff1603611b325760006040517f57f447ce000000000000000000000000000000000000000000000000000000008152600401611b299190613f6d565b60405180910390fd5b600073ffffffffffffffffffffffffffffffffffffffff168573ffffffffffffffffffffffffffffffffffffffff1603611ba45760006040517f01a83514000000000000000000000000000000000000000000000000000000008152600401611b9b9190613f6d565b60405180910390fd5b611bb18585858585612165565b5050505050565b611bc981611bc4611ab8565b612217565b50565b6000611bd88383610fa8565b611cb257600160008085815260200190815260200160002060000160008473ffffffffffffffffffffffffffffffffffffffff1673ffffffffffffffffffffffffffffffffffffffff16815260200190815260200160002060006101000a81548160ff021916908315150217905550611c4f611ab8565b73ffffffffffffffffffffffffffffffffffffffff168273ffffffffffffffffffffffffffffffffffffffff16847f2f8788117e7eff1d82e926ec794901d17c78024a50270940304540a733656f0d60405160405180910390a460019050611cb7565b600090505b92915050565b6000611cc98383610fa8565b15611da457600080600085815260200190815260200160002060000160008473ffffffffffffffffffffffffffffffffffffffff1673ffffffffffffffffffffffffffffffffffffffff16815260200190815260200160002060006101000a81548160ff021916908315150217905550611d41611ab8565b73ffffffffffffffffffffffffffffffffffffffff168273ffffffffffffffffffffffffffffffffffffffff16847ff6391f5c32d9c69d2a47ea670b442974b53935d1edc7fd64eb21e047a839171b60405160405180910390a460019050611da9565b600090505b92915050565b600073ffffffffffffffffffffffffffffffffffffffff168473ffffffffffffffffffffffffffffffffffffffff1603611e215760006040517f57f447ce000000000000000000000000000000000000000000000000000000008152600401611e189190613f6d565b60405180910390fd5b600080611e2e8585612268565b91509150611e40600087848487612165565b505050505050565b600060208202602084010151905092915050565b600060208202602084010151905092915050565b600073ffffffffffffffffffffffffffffffffffffffff168273ffffffffffffffffffffffffffffffffffffffff1603611ee25760006040517fced3e100000000000000000000000000000000000000000000000000000000008152600401611ed99190613f6d565b60405180910390fd5b80600260008573ffffffffffffffffffffffffffffffffffffffff1673ffffffffffffffffffffffffffffffffffffffff16815260200190815260200160002060008473ffffffffffffffffffffffffffffffffffffffff1673ffffffffffffffffffffffffffffffffffffffff16815260200190815260200160002060006101000a81548160ff0219169083151502179055508173ffffffffffffffffffffffffffffffffffffffff168373ffffffffffffffffffffffffffffffffffffffff167f17307eab39ab6107e8899845ad3d59bd9653f200f220920489ca2b5937696c3183604051611fd39190612cb2565b60405180910390a3505050565b600073ffffffffffffffffffffffffffffffffffffffff168473ffffffffffffffffffffffffffffffffffffffff16036120525760006040517f57f447ce0000000000000000000000000000000000000000000000000000000081526004016120499190613f6d565b60405180910390fd5b600073ffffffffffffffffffffffffffffffffffffffff168573ffffffffffffffffffffffffffffffffffffffff16036120c45760006040517f01a835140000000000000000000000000000000000000000000000000000000081526004016120bb9190613f6d565b60405180910390fd5b6000806120d18585612268565b915091506120e28787848487612165565b50505050505050565b60007f7965db0b000000000000000000000000000000000000000000000000000000007bffffffffffffffffffffffffffffffffffffffffffffffffffffffff1916827bffffffffffffffffffffffffffffffffffffffffffffffffffffffff1916148061215e575061215d82612298565b5b9050919050565b61217185858585612302565b600073ffffffffffffffffffffffffffffffffffffffff168473ffffffffffffffffffffffffffffffffffffffff16146122105760006121af611ab8565b905060018451036121ff5760006121d0600086611e5c90919063ffffffff16565b905060006121e8600086611e5c90919063ffffffff16565b90506121f88389898585896126ad565b505061220e565b61220d818787878787612861565b5b505b5050505050565b6122218282610fa8565b6122645780826040517fe2517d3f00000000000000000000000000000000000000000000000000000000815260040161225b929190613f88565b60405180910390fd5b5050565b60608060405191506001825283602083015260408201905060018152826020820152604081016040529250929050565b60007f01ffc9a7000000000000000000000000000000000000000000000000000000007bffffffffffffffffffffffffffffffffffffffffffffffffffffffff1916827bffffffffffffffffffffffffffffffffffffffffffffffffffffffff1916149050919050565b805182511461234c57815181516040517f5b059991000000000000000000000000000000000000000000000000000000008152600401612343929190613e90565b60405180910390fd5b6000612356611ab8565b905060005b83518110156125685760006123798286611e5c90919063ffffffff16565b905060006123908386611e5c90919063ffffffff16565b9050600073ffffffffffffffffffffffffffffffffffffffff168873ffffffffffffffffffffffffffffffffffffffff16146124bf5760006001600084815260200190815260200160002060008a73ffffffffffffffffffffffffffffffffffffffff1673ffffffffffffffffffffffffffffffffffffffff1681526020019081526020016000205490508181101561246657888183856040517f03dee4c500000000000000000000000000000000000000000000000000000000815260040161245d9493929190613fb1565b60405180910390fd5b8181036001600085815260200190815260200160002060008b73ffffffffffffffffffffffffffffffffffffffff1673ffffffffffffffffffffffffffffffffffffffff16815260200190815260200160002081905550505b600073ffffffffffffffffffffffffffffffffffffffff168773ffffffffffffffffffffffffffffffffffffffff161461255b57806001600084815260200190815260200160002060008973ffffffffffffffffffffffffffffffffffffffff1673ffffffffffffffffffffffffffffffffffffffff16815260200190815260200160002060008282546125539190613a5c565b925050819055505b505080600101905061235b565b506001835103612627576000612588600085611e5c90919063ffffffff16565b905060006125a0600085611e5c90919063ffffffff16565b90508573ffffffffffffffffffffffffffffffffffffffff168773ffffffffffffffffffffffffffffffffffffffff168473ffffffffffffffffffffffffffffffffffffffff167fc3d58168c5ae7397731d063d5bbf3d657854427343f4c083240f7aacaa2d0f628585604051612618929190613e90565b60405180910390a450506126a6565b8373ffffffffffffffffffffffffffffffffffffffff168573ffffffffffffffffffffffffffffffffffffffff168273ffffffffffffffffffffffffffffffffffffffff167f4a39dc06d4c0dbc64b70af90fd698a233a518aa5d07e595d983b8c0526c8f7fb868660405161269d929190613ff6565b60405180910390a45b5050505050565b60008473ffffffffffffffffffffffffffffffffffffffff163b1115612859578373ffffffffffffffffffffffffffffffffffffffff1663f23a6e6187878686866040518663ffffffff1660e01b815260040161270e959493929190614082565b6020604051808303816000875af192505050801561274a57506040513d601f19601f8201168201806040525081019061274791906140f1565b60015b6127ce573d806000811461277a576040519150601f19603f3d011682016040523d82523d6000602084013e61277f565b606091505b5060008151036127c657846040517f57f447ce0000000000000000000000000000000000000000000000000000000081526004016127bd9190613f6d565b60405180910390fd5b805181602001fd5b63f23a6e6160e01b7bffffffffffffffffffffffffffffffffffffffffffffffffffffffff1916817bffffffffffffffffffffffffffffffffffffffffffffffffffffffff19161461285757846040517f57f447ce00000000000000000000000000000000000000000000000000000000815260040161284e9190613f6d565b60405180910390fd5b505b505050505050565b60008473ffffffffffffffffffffffffffffffffffffffff163b1115612a0d578373ffffffffffffffffffffffffffffffffffffffff1663bc197c8187878686866040518663ffffffff1660e01b81526004016128c295949392919061411e565b6020604051808303816000875af19250505080156128fe57506040513d601f19601f820116820180604052508101906128fb91906140f1565b60015b612982573d806000811461292e576040519150601f19603f3d011682016040523d82523d6000602084013e612933565b606091505b50600081510361297a57846040517f57f447ce0000000000000000000000000000000000000000000000000000000081526004016129719190613f6d565b60405180910390fd5b805181602001fd5b63bc197c8160e01b7bffffffffffffffffffffffffffffffffffffffffffffffffffffffff1916817bffffffffffffffffffffffffffffffffffffffffffffffffffffffff191614612a0b57846040517f57f447ce000000000000000000000000000000000000000000000000000000008152600401612a029190613f6d565b60405180910390fd5b505b505050505050565b6000604051905090565b600080fd5b600080fd5b600073ffffffffffffffffffffffffffffffffffffffff82169050919050565b6000612a5482612a29565b9050919050565b612a6481612a49565b8114612a6f57600080fd5b50565b600081359050612a8181612a5b565b92915050565b6000819050919050565b612a9a81612a87565b8114612aa557600080fd5b50565b600081359050612ab781612a91565b92915050565b60008060408385031215612ad457612ad3612a1f565b5b6000612ae285828601612a72565b9250506020612af385828601612aa8565b9150509250929050565b612b0681612a87565b82525050565b6000602082019050612b216000830184612afd565b92915050565b600081519050919050565b600082825260208201905092915050565b60005b83811015612b61578082015181840152602081019050612b46565b60008484015250505050565b6000601f19601f8301169050919050565b6000612b8982612b27565b612b938185612b32565b9350612ba3818560208601612b43565b612bac81612b6d565b840191505092915050565b612bc081612a49565b82525050565b6000608082019050612bdb6000830187612afd565b612be86020830186612afd565b8181036040830152612bfa8185612b7e565b9050612c096060830184612bb7565b95945050505050565b60007fffffffff0000000000000000000000000000000000000000000000000000000082169050919050565b612c4781612c12565b8114612c5257600080fd5b50565b600081359050612c6481612c3e565b92915050565b600060208284031215612c8057612c7f612a1f565b5b6000612c8e84828501612c55565b91505092915050565b60008115159050919050565b612cac81612c97565b82525050565b6000602082019050612cc76000830184612ca3565b92915050565b600060208284031215612ce357612ce2612a1f565b5b6000612cf184828501612aa8565b91505092915050565b60006020820190508181036000830152612d148184612b7e565b905092915050565b6000819050919050565b612d2f81612d1c565b8114612d3a57600080fd5b50565b600081359050612d4c81612d26565b92915050565b600060208284031215612d6857612d67612a1f565b5b6000612d7684828501612d3d565b91505092915050565b612d8881612d1c565b82525050565b6000602082019050612da36000830184612d7f565b92915050565b600080fd5b7f4e487b7100000000000000000000000000000000000000000000000000000000600052604160045260246000fd5b612de682612b6d565b810181811067ffffffffffffffff82111715612e0557612e04612dae565b5b80604052505050565b6000612e18612a15565b9050612e248282612ddd565b919050565b600067ffffffffffffffff821115612e4457612e43612dae565b5b602082029050602081019050919050565b600080fd5b6000612e6d612e6884612e29565b612e0e565b90508083825260208201905060208402830185811115612e9057612e8f612e55565b5b835b81811015612eb95780612ea58882612aa8565b845260208401935050602081019050612e92565b5050509392505050565b600082601f830112612ed857612ed7612da9565b5b8135612ee8848260208601612e5a565b91505092915050565b600080fd5b600067ffffffffffffffff821115612f1157612f10612dae565b5b612f1a82612b6d565b9050602081019050919050565b82818337600083830152505050565b6000612f49612f4484612ef6565b612e0e565b905082815260208101848484011115612f6557612f64612ef1565b5b612f70848285612f27565b509392505050565b600082601f830112612f8d57612f8c612da9565b5b8135612f9d848260208601612f36565b91505092915050565b600080600080600060a08688031215612fc257612fc1612a1f565b5b6000612fd088828901612a72565b9550506020612fe188828901612a72565b945050604086013567ffffffffffffffff81111561300257613001612a24565b5b61300e88828901612ec3565b935050606086013567ffffffffffffffff81111561302f5761302e612a24565b5b61303b88828901612ec3565b925050608086013567ffffffffffffffff81111561305c5761305b612a24565b5b61306888828901612f78565b9150509295509295909350565b6000806040838503121561308c5761308b612a1f565b5b600061309a85828601612d3d565b92505060206130ab85828601612a72565b9150509250929050565b600060a0820190506130ca6000830188612afd565b81810360208301526130dc8187612b7e565b905081810360408301526130f08186612b7e565b905081810360608301526131048185612b7e565b905081810360808301526131188184612b7e565b90509695505050505050565b600080fd5b60008083601f84011261313f5761313e612da9565b5b8235905067ffffffffffffffff81111561315c5761315b613124565b5b60208301915083600182028301111561317857613177612e55565b5b9250929050565b6000806000806000806080878903121561319c5761319b612a1f565b5b60006131aa89828a01612aa8565b96505060206131bb89828a01612a72565b955050604087013567ffffffffffffffff8111156131dc576131db612a24565b5b6131e889828a01613129565b9450945050606087013567ffffffffffffffff81111561320b5761320a612a24565b5b61321789828a01613129565b92509250509295509295509295565b600067ffffffffffffffff82111561324157613240612dae565b5b602082029050602081019050919050565b600061326561326084613226565b612e0e565b9050808382526020820190506020840283018581111561328857613287612e55565b5b835b818110156132b1578061329d8882612a72565b84526020840193505060208101905061328a565b5050509392505050565b600082601f8301126132d0576132cf612da9565b5b81356132e0848260208601613252565b91505092915050565b60008060408385031215613300576132ff612a1f565b5b600083013567ffffffffffffffff81111561331e5761331d612a24565b5b61332a858286016132bb565b925050602083013567ffffffffffffffff81111561334b5761334a612a24565b5b61335785828601612ec3565b9150509250929050565b600081519050919050565b600082825260208201905092915050565b6000819050602082019050919050565b61339681612a87565b82525050565b60006133a8838361338d565b60208301905092915050565b6000602082019050919050565b60006133cc82613361565b6133d6818561336c565b93506133e18361337d565b8060005b838110156134125781516133f9888261339c565b9750613404836133b4565b9250506001810190506133e5565b5085935050505092915050565b6000602082019050818103600083015261343981846133c1565b905092915050565b60008060008060008060008060008060c08b8d03121561346457613463612a1f565b5b60006134728d828e01612aa8565b9a505060206134838d828e01612aa8565b99505060408b013567ffffffffffffffff8111156134a4576134a3612a24565b5b6134b08d828e01613129565b985098505060608b013567ffffffffffffffff8111156134d3576134d2612a24565b5b6134df8d828e01613129565b965096505060808b013567ffffffffffffffff81111561350257613501612a24565b5b61350e8d828e01613129565b945094505060a08b013567ffffffffffffffff81111561353157613530612a24565b5b61353d8d828e01613129565b92509250509295989b9194979a5092959850565b60006080820190506135666000830187612afd565b6135736020830186612bb7565b81810360408301526135858185612b7e565b905081810360608301526135998184612b7e565b905095945050505050565b6135ad81612c97565b81146135b857600080fd5b50565b6000813590506135ca816135a4565b92915050565b600080604083850312156135e7576135e6612a1f565b5b60006135f585828601612a72565b9250506020613606858286016135bb565b9150509250929050565b60006080820190506136256000830187612afd565b6136326020830186612afd565b61363f6040830185612afd565b61364c6060830184612bb7565b95945050505050565b6000806040838503121561366c5761366b612a1f565b5b600061367a85828601612a72565b925050602061368b85828601612a72565b9150509250929050565b6000602082840312156136ab576136aa612a1f565b5b60006136b984828501612a72565b91505092915050565b600081519050919050565b600082825260208201905092915050565b6000819050602082019050919050565b600082825260208201905092915050565b600061370a82612b27565b61371481856136ee565b9350613724818560208601612b43565b61372d81612b6d565b840191505092915050565b600060a083016000830151613750600086018261338d565b506020830151848203602086015261376882826136ff565b9150506040830151848203604086015261378282826136ff565b9150506060830151848203606086015261379c82826136ff565b915050608083015184820360808601526137b682826136ff565b9150508091505092915050565b60006137cf8383613738565b905092915050565b6000602082019050919050565b60006137ef826136c2565b6137f981856136cd565b93508360208202850161380b856136de565b8060005b85811015613847578484038952815161382885826137c3565b9450613833836137d7565b925060208a0199505060018101905061380f565b50829750879550505050505092915050565b6000602082019050818103600083015261387381846137e4565b905092915050565b600080600080600060a0868803121561389757613896612a1f565b5b60006138a588828901612a72565b95505060206138b688828901612a72565b94505060406138c788828901612aa8565b93505060606138d888828901612aa8565b925050608086013567ffffffffffffffff8111156138f9576138f8612a24565b5b61390588828901612f78565b9150509295509295909350565b7f4e487b7100000000000000000000000000000000000000000000000000000000600052602260045260246000fd5b6000600282049050600182168061395957607f821691505b60208210810361396c5761396b613912565b5b50919050565b60006040820190506139876000830185612bb7565b6139946020830184612bb7565b9392505050565b7f4475706c696361746520726571756573742c20617070726f76616c206f75747360008201527f74616e64696e6700000000000000000000000000000000000000000000000000602082015250565b60006139f7602783612b32565b9150613a028261399b565b604082019050919050565b60006020820190508181036000830152613a26816139ea565b9050919050565b7f4e487b7100000000000000000000000000000000000000000000000000000000600052601160045260246000fd5b6000613a6782612a87565b9150613a7283612a87565b9250828201905080821115613a8a57613a89613a2d565b5b92915050565b7f496e76616c696420726571756573742c20737572766579207265706c79206f7560008201527f747374616e64696e670000000000000000000000000000000000000000000000602082015250565b6000613aec602983612b32565b9150613af782613a90565b604082019050919050565b60006020820190508181036000830152613b1b81613adf565b9050919050565b7f43616e277420726573706f6e6420746f20796f7572206f776e20737572766579600082015250565b6000613b58602083612b32565b9150613b6382613b22565b602082019050919050565b60006020820190508181036000830152613b8781613b4b565b9050919050565b60008190508160005260206000209050919050565b60006020601f8301049050919050565b600082821b905092915050565b600060088302613bf07fffffffffffffffffffffffffffffffffffffffffffffffffffffffffffffffff82613bb3565b613bfa8683613bb3565b95508019841693508086168417925050509392505050565b6000819050919050565b6000613c37613c32613c2d84612a87565b613c12565b612a87565b9050919050565b6000819050919050565b613c5183613c1c565b613c65613c5d82613c3e565b848454613bc0565b825550505050565b600090565b613c7a613c6d565b613c85818484613c48565b505050565b5b81811015613ca957613c9e600082613c72565b600181019050613c8b565b5050565b601f821115613cee57613cbf81613b8e565b613cc884613ba3565b81016020851015613cd7578190505b613ceb613ce385613ba3565b830182613c8a565b50505b505050565b600082821c905092915050565b6000613d1160001984600802613cf3565b1980831691505092915050565b6000613d2a8383613d00565b9150826002028217905092915050565b613d4382612b27565b67ffffffffffffffff811115613d5c57613d5b612dae565b5b613d668254613941565b613d71828285613cad565b600060209050601f831160018114613da45760008415613d92578287015190505b613d9c8582613d1e565b865550613e04565b601f198416613db286613b8e565b60005b82811015613dda57848901518255600182019150602085019450602081019050613db5565b86831015613df75784890151613df3601f891682613d00565b8355505b6001600288020188555050505b505050505050565b6000613e188385612b32565b9350613e25838584612f27565b613e2e83612b6d565b840190509392505050565b6000608082019050613e4e6000830189612afd565b613e5b6020830188612bb7565b8181036040830152613e6e818688613e0c565b90508181036060830152613e83818486613e0c565b9050979650505050505050565b6000604082019050613ea56000830185612afd565b613eb26020830184612afd565b9392505050565b7f4e487b7100000000000000000000000000000000000000000000000000000000600052603260045260246000fd5b600060c082019050613efd600083018d612afd565b8181036020830152613f10818b8d613e0c565b90508181036040830152613f2581898b613e0c565b90508181036060830152613f3a818789613e0c565b90508181036080830152613f4f818587613e0c565b9050613f5e60a0830184612bb7565b9b9a5050505050505050505050565b6000602082019050613f826000830184612bb7565b92915050565b6000604082019050613f9d6000830185612bb7565b613faa6020830184612d7f565b9392505050565b6000608082019050613fc66000830187612bb7565b613fd36020830186612afd565b613fe06040830185612afd565b613fed6060830184612afd565b95945050505050565b6000604082019050818103600083015261401081856133c1565b9050818103602083015261402481846133c1565b90509392505050565b600081519050919050565b600082825260208201905092915050565b60006140548261402d565b61405e8185614038565b935061406e818560208601612b43565b61407781612b6d565b840191505092915050565b600060a0820190506140976000830188612bb7565b6140a46020830187612bb7565b6140b16040830186612afd565b6140be6060830185612afd565b81810360808301526140d08184614049565b90509695505050505050565b6000815190506140eb81612c3e565b92915050565b60006020828403121561410757614106612a1f565b5b6000614115848285016140dc565b91505092915050565b600060a0820190506141336000830188612bb7565b6141406020830187612bb7565b818103604083015261415281866133c1565b9050818103606083015261416681856133c1565b9050818103608083015261417a8184614049565b9050969550505050505056fea26469706673582212206fbde6c1b3f358cece8559d172b3d036f1bb6399d573e92986655a9983c50e0364736f6c634300081b0033",
  "linkReferences": {},
  "deployedLinkReferences": {}
}