{
  "_format": "hh-sol-artifact-1",
  "contractName": "CryptoSurveyV1",
  "sourceName": "contracts/CryptoSurveyV1.sol",
  "abi": [
    {
      "inputs": [],
      "stateMutability": "nonpayable",
      "type": "constructor"
    },
    {
      "inputs": [],
      "name": "AccessControlBadConfirmation",
      "type": "error"
    },
    {
      "inputs": [
        {
          "internalType": "address",
          "name": "account",
          "type": "address"
        },
        {
          "internalType": "bytes32",
          "name": "neededRole",
          "type": "bytes32"
        }
      ],
      "name": "AccessControlUnauthorizedAccount",
      "type": "error"
    },
    {
      "inputs": [
        {
          "internalType": "address",
          "name": "sender",
          "type": "address"
        },
        {
          "internalType": "uint256",
          "name": "balance",
          "type": "uint256"
        },
        {
          "internalType": "uint256",
          "name": "needed",
          "type": "uint256"
        },
        {
          "internalType": "uint256",
          "name": "tokenId",
          "type": "uint256"
        }
      ],
      "name": "ERC1155InsufficientBalance",
      "type": "error"
    },
    {
      "inputs": [
        {
          "internalType": "address",
          "name": "approver",
          "type": "address"
        }
      ],
      "name": "ERC1155InvalidApprover",
      "type": "error"
    },
    {
      "inputs": [
        {
          "internalType": "uint256",
          "name": "idsLength",
          "type": "uint256"
        },
        {
          "internalType": "uint256",
          "name": "valuesLength",
          "type": "uint256"
        }
      ],
      "name": "ERC1155InvalidArrayLength",
      "type": "error"
    },
    {
      "inputs": [
        {
          "internalType": "address",
          "name": "operator",
          "type": "address"
        }
      ],
      "name": "ERC1155InvalidOperator",
      "type": "error"
    },
    {
      "inputs": [
        {
          "internalType": "address",
          "name": "receiver",
          "type": "address"
        }
      ],
      "name": "ERC1155InvalidReceiver",
      "type": "error"
    },
    {
      "inputs": [
        {
          "internalType": "address",
          "name": "sender",
          "type": "address"
        }
      ],
      "name": "ERC1155InvalidSender",
      "type": "error"
    },
    {
      "inputs": [
        {
          "internalType": "address",
          "name": "operator",
          "type": "address"
        },
        {
          "internalType": "address",
          "name": "owner",
          "type": "address"
        }
      ],
      "name": "ERC1155MissingApprovalForAll",
      "type": "error"
    },
    {
      "anonymous": false,
      "inputs": [
        {
          "indexed": true,
          "internalType": "address",
          "name": "account",
          "type": "address"
        },
        {
          "indexed": true,
          "internalType": "address",
          "name": "operator",
          "type": "address"
        },
        {
          "indexed": false,
          "internalType": "bool",
          "name": "approved",
          "type": "bool"
        }
      ],
      "name": "ApprovalForAll",
      "type": "event"
    },
    {
      "anonymous": false,
      "inputs": [
        {
          "indexed": false,
          "internalType": "uint256",
          "name": "surveyId",
          "type": "uint256"
        },
        {
          "indexed": false,
          "internalType": "address",
          "name": "requestAddress",
          "type": "address"
        },
        {
          "indexed": false,
          "internalType": "string",
          "name": "encryptedCID",
          "type": "string"
        }
      ],
      "name": "CreatePermissionEvent",
      "type": "event"
    },
    {
      "anonymous": false,
      "inputs": [
        {
          "indexed": false,
          "internalType": "uint256",
          "name": "surveyId",
          "type": "uint256"
        },
        {
          "indexed": false,
          "internalType": "address",
          "name": "requestAddress",
          "type": "address"
        },
        {
          "indexed": false,
          "internalType": "string",
          "name": "description",
          "type": "string"
        },
        {
          "indexed": false,
          "internalType": "string",
          "name": "publicKey",
          "type": "string"
        }
      ],
      "name": "CreateRequestEvent",
      "type": "event"
    },
    {
      "anonymous": false,
      "inputs": [
        {
          "indexed": false,
          "internalType": "uint256",
          "name": "surveyId",
          "type": "uint256"
        },
        {
          "indexed": false,
          "internalType": "string",
          "name": "name",
          "type": "string"
        },
        {
          "indexed": false,
          "internalType": "string",
          "name": "description",
          "type": "string"
        },
        {
          "indexed": false,
          "internalType": "string",
          "name": "imageCID",
          "type": "string"
        },
        {
          "indexed": false,
          "internalType": "string",
          "name": "encryptedCID",
          "type": "string"
        },
        {
          "indexed": false,
          "internalType": "address",
          "name": "surveyAddress",
          "type": "address"
        }
      ],
      "name": "CreateSurveyEvent",
      "type": "event"
    },
    {
      "anonymous": false,
      "inputs": [
        {
          "indexed": false,
          "internalType": "uint256",
          "name": "surveyId",
          "type": "uint256"
        },
        {
          "indexed": false,
          "internalType": "uint256",
          "name": "maxReply",
          "type": "uint256"
        },
        {
          "indexed": false,
          "internalType": "uint256",
          "name": "incentive",
          "type": "uint256"
        },
        {
          "indexed": false,
          "internalType": "address",
          "name": "owner",
          "type": "address"
        }
      ],
      "name": "CreateSurveyMetadataEvent",
      "type": "event"
    },
    {
      "anonymous": false,
      "inputs": [
        {
          "indexed": true,
          "internalType": "bytes32",
          "name": "role",
          "type": "bytes32"
        },
        {
          "indexed": true,
          "internalType": "bytes32",
          "name": "previousAdminRole",
          "type": "bytes32"
        },
        {
          "indexed": true,
          "internalType": "bytes32",
          "name": "newAdminRole",
          "type": "bytes32"
        }
      ],
      "name": "RoleAdminChanged",
      "type": "event"
    },
    {
      "anonymous": false,
      "inputs": [
        {
          "indexed": true,
          "internalType": "bytes32",
          "name": "role",
          "type": "bytes32"
        },
        {
          "indexed": true,
          "internalType": "address",
          "name": "account",
          "type": "address"
        },
        {
          "indexed": true,
          "internalType": "address",
          "name": "sender",
          "type": "address"
        }
      ],
      "name": "RoleGranted",
      "type": "event"
    },
    {
      "anonymous": false,
      "inputs": [
        {
          "indexed": true,
          "internalType": "bytes32",
          "name": "role",
          "type": "bytes32"
        },
        {
          "indexed": true,
          "internalType": "address",
          "name": "account",
          "type": "address"
        },
        {
          "indexed": true,
          "internalType": "address",
          "name": "sender",
          "type": "address"
        }
      ],
      "name": "RoleRevoked",
      "type": "event"
    },
    {
      "anonymous": false,
      "inputs": [
        {
          "indexed": false,
          "internalType": "uint256",
          "name": "surveyId",
          "type": "uint256"
        },
        {
          "indexed": false,
          "internalType": "uint256",
          "name": "incentive",
          "type": "uint256"
        },
        {
          "indexed": false,
          "internalType": "string",
          "name": "encryptedCID",
          "type": "string"
        },
        {
          "indexed": false,
          "internalType": "address",
          "name": "replyAddress",
          "type": "address"
        }
      ],
      "name": "SubmitSurveyReplyEvent",
      "type": "event"
    },
    {
      "anonymous": false,
      "inputs": [
        {
          "indexed": true,
          "internalType": "address",
          "name": "operator",
          "type": "address"
        },
        {
          "indexed": true,
          "internalType": "address",
          "name": "from",
          "type": "address"
        },
        {
          "indexed": true,
          "internalType": "address",
          "name": "to",
          "type": "address"
        },
        {
          "indexed": false,
          "internalType": "uint256[]",
          "name": "ids",
          "type": "uint256[]"
        },
        {
          "indexed": false,
          "internalType": "uint256[]",
          "name": "values",
          "type": "uint256[]"
        }
      ],
      "name": "TransferBatch",
      "type": "event"
    },
    {
      "anonymous": false,
      "inputs": [
        {
          "indexed": true,
          "internalType": "address",
          "name": "operator",
          "type": "address"
        },
        {
          "indexed": true,
          "internalType": "address",
          "name": "from",
          "type": "address"
        },
        {
          "indexed": true,
          "internalType": "address",
          "name": "to",
          "type": "address"
        },
        {
          "indexed": false,
          "internalType": "uint256",
          "name": "id",
          "type": "uint256"
        },
        {
          "indexed": false,
          "internalType": "uint256",
          "name": "value",
          "type": "uint256"
        }
      ],
      "name": "TransferSingle",
      "type": "event"
    },
    {
      "anonymous": false,
      "inputs": [
        {
          "indexed": false,
          "internalType": "string",
          "name": "value",
          "type": "string"
        },
        {
          "indexed": true,
          "internalType": "uint256",
          "name": "id",
          "type": "uint256"
        }
      ],
      "name": "URI",
      "type": "event"
    },
    {
      "inputs": [],
      "name": "CSURVEY",
      "outputs": [
        {
          "internalType": "uint256",
          "name": "",
          "type": "uint256"
        }
      ],
      "stateMutability": "view",
      "type": "function"
    },
    {
      "inputs": [],
      "name": "DEFAULT_ADMIN_ROLE",
      "outputs": [
        {
          "internalType": "bytes32",
          "name": "",
          "type": "bytes32"
        }
      ],
      "stateMutability": "view",
      "type": "function"
    },
    {
      "inputs": [
        {
          "internalType": "address",
          "name": "account",
          "type": "address"
        },
        {
          "internalType": "uint256",
          "name": "id",
          "type": "uint256"
        }
      ],
      "name": "balanceOf",
      "outputs": [
        {
          "internalType": "uint256",
          "name": "",
          "type": "uint256"
        }
      ],
      "stateMutability": "view",
      "type": "function"
    },
    {
      "inputs": [
        {
          "internalType": "address[]",
          "name": "accounts",
          "type": "address[]"
        },
        {
          "internalType": "uint256[]",
          "name": "ids",
          "type": "uint256[]"
        }
      ],
      "name": "balanceOfBatch",
      "outputs": [
        {
          "internalType": "uint256[]",
          "name": "",
          "type": "uint256[]"
        }
      ],
      "stateMutability": "view",
      "type": "function"
    },
    {
      "inputs": [
        {
          "internalType": "uint256",
          "name": "surveyId",
          "type": "uint256"
        },
        {
          "internalType": "address",
          "name": "requestAddress",
          "type": "address"
        },
        {
          "internalType": "string",
          "name": "encryptedCID",
          "type": "string"
        }
      ],
      "name": "createPermission",
      "outputs": [],
      "stateMutability": "nonpayable",
      "type": "function"
    },
    {
      "inputs": [
        {
          "internalType": "uint256",
          "name": "surveyId",
          "type": "uint256"
        },
        {
          "internalType": "address",
          "name": "surveyAddress",
          "type": "address"
        },
        {
          "internalType": "string",
          "name": "description",
          "type": "string"
        },
        {
          "internalType": "string",
          "name": "publicKey",
          "type": "string"
        }
      ],
      "name": "createRequest",
      "outputs": [],
      "stateMutability": "nonpayable",
      "type": "function"
    },
    {
      "inputs": [
        {
          "internalType": "uint256",
          "name": "maxReply",
          "type": "uint256"
        },
        {
          "internalType": "uint256",
          "name": "incentive",
          "type": "uint256"
        },
        {
          "internalType": "string",
          "name": "name",
          "type": "string"
        },
        {
          "internalType": "string",
          "name": "description",
          "type": "string"
        },
        {
          "internalType": "string",
          "name": "imageCID",
          "type": "string"
        },
        {
          "internalType": "string",
          "name": "encryptedCID",
          "type": "string"
        }
      ],
      "name": "createSurvey",
      "outputs": [],
      "stateMutability": "nonpayable",
      "type": "function"
    },
    {
      "inputs": [
        {
          "internalType": "bytes32",
          "name": "role",
          "type": "bytes32"
        }
      ],
      "name": "getRoleAdmin",
      "outputs": [
        {
          "internalType": "bytes32",
          "name": "",
          "type": "bytes32"
        }
      ],
      "stateMutability": "view",
      "type": "function"
    },
    {
      "inputs": [
        {
          "internalType": "address",
          "name": "_address",
          "type": "address"
        }
      ],
      "name": "getSurveysForAddress",
      "outputs": [
        {
          "components": [
            {
              "internalType": "uint256",
              "name": "surveyId",
              "type": "uint256"
            },
            {
              "internalType": "string",
              "name": "name",
              "type": "string"
            },
            {
              "internalType": "string",
              "name": "description",
              "type": "string"
            },
            {
              "internalType": "string",
              "name": "imageCID",
              "type": "string"
            },
            {
              "internalType": "string",
              "name": "encryptedCID",
              "type": "string"
            }
          ],
          "internalType": "struct CryptoSurveyV1.Survey[]",
          "name": "",
          "type": "tuple[]"
        }
      ],
      "stateMutability": "view",
      "type": "function"
    },
    {
      "inputs": [
        {
          "internalType": "bytes32",
          "name": "role",
          "type": "bytes32"
        },
        {
          "internalType": "address",
          "name": "account",
          "type": "address"
        }
      ],
      "name": "grantRole",
      "outputs": [],
      "stateMutability": "nonpayable",
      "type": "function"
    },
    {
      "inputs": [
        {
          "internalType": "bytes32",
          "name": "role",
          "type": "bytes32"
        },
        {
          "internalType": "address",
          "name": "account",
          "type": "address"
        }
      ],
      "name": "hasRole",
      "outputs": [
        {
          "internalType": "bool",
          "name": "",
          "type": "bool"
        }
      ],
      "stateMutability": "view",
      "type": "function"
    },
    {
      "inputs": [
        {
          "internalType": "address",
          "name": "account",
          "type": "address"
        },
        {
          "internalType": "address",
          "name": "operator",
          "type": "address"
        }
      ],
      "name": "isApprovedForAll",
      "outputs": [
        {
          "internalType": "bool",
          "name": "",
          "type": "bool"
        }
      ],
      "stateMutability": "view",
      "type": "function"
    },
    {
      "inputs": [
        {
          "internalType": "address",
          "name": "",
          "type": "address"
        },
        {
          "internalType": "uint256",
          "name": "",
          "type": "uint256"
        }
      ],
      "name": "permissions",
      "outputs": [
        {
          "internalType": "uint256",
          "name": "surveyId",
          "type": "uint256"
        },
        {
          "internalType": "address",
          "name": "requestAddress",
          "type": "address"
        },
        {
          "internalType": "string",
          "name": "encryptedCID",
          "type": "string"
        }
      ],
      "stateMutability": "view",
      "type": "function"
    },
    {
      "inputs": [
        {
          "internalType": "bytes32",
          "name": "role",
          "type": "bytes32"
        },
        {
          "internalType": "address",
          "name": "callerConfirmation",
          "type": "address"
        }
      ],
      "name": "renounceRole",
      "outputs": [],
      "stateMutability": "nonpayable",
      "type": "function"
    },
    {
      "inputs": [
        {
          "internalType": "address",
          "name": "",
          "type": "address"
        },
        {
          "internalType": "uint256",
          "name": "",
          "type": "uint256"
        }
      ],
      "name": "requests",
      "outputs": [
        {
          "internalType": "uint256",
          "name": "surveyId",
          "type": "uint256"
        },
        {
          "internalType": "address",
          "name": "requestAddress",
          "type": "address"
        },
        {
          "internalType": "string",
          "name": "description",
          "type": "string"
        },
        {
          "internalType": "string",
          "name": "publicKey",
          "type": "string"
        }
      ],
      "stateMutability": "view",
      "type": "function"
    },
    {
      "inputs": [
        {
          "internalType": "bytes32",
          "name": "role",
          "type": "bytes32"
        },
        {
          "internalType": "address",
          "name": "account",
          "type": "address"
        }
      ],
      "name": "revokeRole",
      "outputs": [],
      "stateMutability": "nonpayable",
      "type": "function"
    },
    {
      "inputs": [
        {
          "internalType": "address",
          "name": "from",
          "type": "address"
        },
        {
          "internalType": "address",
          "name": "to",
          "type": "address"
        },
        {
          "internalType": "uint256[]",
          "name": "ids",
          "type": "uint256[]"
        },
        {
          "internalType": "uint256[]",
          "name": "values",
          "type": "uint256[]"
        },
        {
          "internalType": "bytes",
          "name": "data",
          "type": "bytes"
        }
      ],
      "name": "safeBatchTransferFrom",
      "outputs": [],
      "stateMutability": "nonpayable",
      "type": "function"
    },
    {
      "inputs": [
        {
          "internalType": "address",
          "name": "from",
          "type": "address"
        },
        {
          "internalType": "address",
          "name": "to",
          "type": "address"
        },
        {
          "internalType": "uint256",
          "name": "id",
          "type": "uint256"
        },
        {
          "internalType": "uint256",
          "name": "value",
          "type": "uint256"
        },
        {
          "internalType": "bytes",
          "name": "data",
          "type": "bytes"
        }
      ],
      "name": "safeTransferFrom",
      "outputs": [],
      "stateMutability": "nonpayable",
      "type": "function"
    },
    {
      "inputs": [
        {
          "internalType": "address",
          "name": "operator",
          "type": "address"
        },
        {
          "internalType": "bool",
          "name": "approved",
          "type": "bool"
        }
      ],
      "name": "setApprovalForAll",
      "outputs": [],
      "stateMutability": "nonpayable",
      "type": "function"
    },
    {
      "inputs": [
        {
          "internalType": "uint256",
          "name": "surveyId",
          "type": "uint256"
        },
        {
          "internalType": "address",
          "name": "surveyAddress",
          "type": "address"
        },
        {
          "internalType": "string",
          "name": "encryptedCID",
          "type": "string"
        }
      ],
      "name": "submitSurveyReply",
      "outputs": [],
      "stateMutability": "nonpayable",
      "type": "function"
    },
    {
      "inputs": [
        {
          "internalType": "bytes4",
          "name": "interfaceId",
          "type": "bytes4"
        }
      ],
      "name": "supportsInterface",
      "outputs": [
        {
          "internalType": "bool",
          "name": "",
          "type": "bool"
        }
      ],
      "stateMutability": "view",
      "type": "function"
    },
    {
      "inputs": [
        {
          "internalType": "uint256",
          "name": "",
          "type": "uint256"
        }
      ],
      "name": "surveyMetadata",
      "outputs": [
        {
          "internalType": "uint256",
          "name": "surveyId",
          "type": "uint256"
        },
        {
          "internalType": "uint256",
          "name": "maxReply",
          "type": "uint256"
        },
        {
          "internalType": "uint256",
          "name": "incentive",
          "type": "uint256"
        },
        {
          "internalType": "address",
          "name": "owner",
          "type": "address"
        }
      ],
      "stateMutability": "view",
      "type": "function"
    },
    {
      "inputs": [
        {
          "internalType": "address",
          "name": "",
          "type": "address"
        },
        {
          "internalType": "uint256",
          "name": "",
          "type": "uint256"
        }
      ],
      "name": "surveyReplies",
      "outputs": [
        {
          "internalType": "uint256",
          "name": "surveyId",
          "type": "uint256"
        },
        {
          "internalType": "uint256",
          "name": "incentive",
          "type": "uint256"
        },
        {
          "internalType": "string",
          "name": "encryptedCID",
          "type": "string"
        },
        {
          "internalType": "address",
          "name": "replyAddress",
          "type": "address"
        }
      ],
      "stateMutability": "view",
      "type": "function"
    },
    {
      "inputs": [
        {
          "internalType": "address",
          "name": "",
          "type": "address"
        },
        {
          "internalType": "uint256",
          "name": "",
          "type": "uint256"
        }
      ],
      "name": "surveys",
      "outputs": [
        {
          "internalType": "uint256",
          "name": "surveyId",
          "type": "uint256"
        },
        {
          "internalType": "string",
          "name": "name",
          "type": "string"
        },
        {
          "internalType": "string",
          "name": "description",
          "type": "string"
        },
        {
          "internalType": "string",
          "name": "imageCID",
          "type": "string"
        },
        {
          "internalType": "string",
          "name": "encryptedCID",
          "type": "string"
        }
      ],
      "stateMutability": "view",
      "type": "function"
    },
    {
      "inputs": [
        {
          "internalType": "uint256",
          "name": "",
          "type": "uint256"
        }
      ],
      "name": "uri",
      "outputs": [
        {
          "internalType": "string",
          "name": "",
          "type": "string"
        }
      ],
      "stateMutability": "view",
      "type": "function"
    }
  ],
  "bytecode": "0x6080604052600160045534801561001557600080fd5b50604051806020016040528060008152506100358161003b60201b60201c565b50610370565b806003908161004a919061029e565b5050565b600081519050919050565b7f4e487b7100000000000000000000000000000000000000000000000000000000600052604160045260246000fd5b7f4e487b7100000000000000000000000000000000000000000000000000000000600052602260045260246000fd5b600060028204905060018216806100cf57607f821691505b6020821081036100e2576100e1610088565b5b50919050565b60008190508160005260206000209050919050565b60006020601f8301049050919050565b600082821b905092915050565b60006008830261014a7fffffffffffffffffffffffffffffffffffffffffffffffffffffffffffffffff8261010d565b610154868361010d565b95508019841693508086168417925050509392505050565b6000819050919050565b6000819050919050565b600061019b6101966101918461016c565b610176565b61016c565b9050919050565b6000819050919050565b6101b583610180565b6101c96101c1826101a2565b84845461011a565b825550505050565b600090565b6101de6101d1565b6101e98184846101ac565b505050565b5b8181101561020d576102026000826101d6565b6001810190506101ef565b5050565b601f82111561025257610223816100e8565b61022c846100fd565b8101602085101561023b578190505b61024f610247856100fd565b8301826101ee565b50505b505050565b600082821c905092915050565b600061027560001984600802610257565b1980831691505092915050565b600061028e8383610264565b9150826002028217905092915050565b6102a78261004e565b67ffffffffffffffff8111156102c0576102bf610059565b5b6102ca82546100b7565b6102d5828285610211565b600060209050601f83116001811461030857600084156102f6578287015190505b6103008582610282565b865550610368565b601f198416610316866100e8565b60005b8281101561033e57848901518255600182019150602085019450602081019050610319565b8683101561035b5784890151610357601f891682610264565b8355505b6001600288020188555050505b505050505050565b614b4a8061037f6000396000f3fe608060405234801561001057600080fd5b50600436106101725760003560e01c80634e1273f4116100de578063c62fa9d611610097578063e9d79b0e11610071578063e9d79b0e146104ae578063f0d4de37146104e0578063f242432a14610510578063ffea4c821461052c57610172565b8063c62fa9d61461042f578063d547741f14610462578063e985e9c51461047e57610172565b80634e1273f41461034657806391d14854146103765780639eabc56a146103a65780639ecebe2a146103c2578063a217fddf146103f5578063a22cb4651461041357610172565b80632d51f3a2116101305780632d51f3a2146102865780632eb2c2d6146102a25780632f2ff15d146102be57806336568abe146102da5780633797e486146102f65780634dc387f51461032a57610172565b8062fdd58e1461017757806301e80cb4146101a757806301ffc9a7146101da5780630e89341c1461020a578063204cddf31461023a578063248a9ca314610256575b600080fd5b610191600480360381019061018c9190613165565b61054a565b60405161019e91906131b4565b60405180910390f35b6101c160048036038101906101bc9190613165565b6105a5565b6040516101d1949392919061326e565b60405180910390f35b6101f460048036038101906101ef9190613312565b61069a565b604051610201919061335a565b60405180910390f35b610224600480360381019061021f9190613375565b61077c565b60405161023191906133a2565b60405180910390f35b610254600480360381019061024f9190613429565b610810565b005b610270600480360381019061026b91906134d3565b610a78565b60405161027d919061350f565b60405180910390f35b6102a0600480360381019061029b9190613429565b610a97565b005b6102bc60048036038101906102b7919061371d565b610cc4565b005b6102d860048036038101906102d391906137ec565b610d6c565b005b6102f460048036038101906102ef91906137ec565b610d8e565b005b610310600480360381019061030b9190613165565b610e09565b60405161032195949392919061382c565b60405180910390f35b610344600480360381019061033f919061389b565b61107c565b005b610360600480360381019061035b9190613a05565b6113b3565b60405161036d9190613b3b565b60405180910390f35b610390600480360381019061038b91906137ec565b6114bc565b60405161039d919061335a565b60405180910390f35b6103c060048036038101906103bb9190613b5d565b611526565b005b6103dc60048036038101906103d79190613165565b6118ab565b6040516103ec9493929190613c6d565b60405180910390f35b6103fd611a28565b60405161040a919061350f565b60405180910390f35b61042d60048036038101906104289190613cec565b611a2f565b005b61044960048036038101906104449190613375565b611a45565b6040516104599493929190613d2c565b60405180910390f35b61047c600480360381019061047791906137ec565b611a95565b005b61049860048036038101906104939190613d71565b611ab7565b6040516104a5919061335a565b60405180910390f35b6104c860048036038101906104c39190613165565b611b4b565b6040516104d793929190613db1565b60405180910390f35b6104fa60048036038101906104f59190613def565b611c3a565b6040516105079190613fb3565b60405180910390f35b61052a60048036038101906105259190613fd5565b611f2a565b005b610534611fd2565b60405161054191906131b4565b60405180910390f35b60006001600083815260200190815260200160002060008473ffffffffffffffffffffffffffffffffffffffff1673ffffffffffffffffffffffffffffffffffffffff16815260200190815260200160002054905092915050565b600660205281600052604060002081815481106105c157600080fd5b9060005260206000209060040201600091509150508060000154908060010154908060020180546105f19061409b565b80601f016020809104026020016040519081016040528092919081815260200182805461061d9061409b565b801561066a5780601f1061063f5761010080835404028352916020019161066a565b820191906000526020600020905b81548152906001019060200180831161064d57829003601f168201915b5050505050908060030160009054906101000a900473ffffffffffffffffffffffffffffffffffffffff16905084565b60007f7965db0b000000000000000000000000000000000000000000000000000000007bffffffffffffffffffffffffffffffffffffffffffffffffffffffff1916827bffffffffffffffffffffffffffffffffffffffffffffffffffffffff1916148061076557507fd9b67a26000000000000000000000000000000000000000000000000000000007bffffffffffffffffffffffffffffffffffffffffffffffffffffffff1916827bffffffffffffffffffffffffffffffffffffffffffffffffffffffff1916145b80610775575061077482611fd7565b5b9050919050565b60606003805461078b9061409b565b80601f01602080910402602001604051908101604052809291908181526020018280546107b79061409b565b80156108045780601f106107d957610100808354040283529160200191610804565b820191906000526020600020905b8154815290600101906020018083116107e757829003601f168201915b50505050509050919050565b600061081c338661054a565b1461085c576040517f08c379a000000000000000000000000000000000000000000000000000000000815260040161085390614118565b60405180910390fd5b6000600760008681526020019081526020016000206001015460076000878152602001908152602001600020600201546108969190614196565b9050600660003373ffffffffffffffffffffffffffffffffffffffff1673ffffffffffffffffffffffffffffffffffffffff168152602001908152602001600020604051806080016040528087815260200183815260200185858080601f016020809104026020016040519081016040528093929190818152602001838380828437600081840152601f19601f8201169050808301925050505050505081526020013373ffffffffffffffffffffffffffffffffffffffff168152509080600181540180825580915050600190039060005260206000209060040201600090919091909150600082015181600001556020820151816001015560408201518160020190816109a49190614373565b5060608201518160030160006101000a81548173ffffffffffffffffffffffffffffffffffffffff021916908373ffffffffffffffffffffffffffffffffffffffff1602179055505050610a0a33866001604051806020016040528060008152506120b9565b610a2633600083604051806020016040528060008152506120b9565b610a3284600083612152565b7f6738b5d93a61cee942d76d12582f52b1b3b8433a91af77036dbada4fca8526d48582858533604051610a69959493929190614472565b60405180910390a15050505050565b6000806000838152602001908152602001600020600101549050919050565b6007600085815260200190815260200160002060030160009054906101000a900473ffffffffffffffffffffffffffffffffffffffff1673ffffffffffffffffffffffffffffffffffffffff163373ffffffffffffffffffffffffffffffffffffffff1614610b3b576040517f08c379a0000000000000000000000000000000000000000000000000000000008152600401610b3290614532565b60405180910390fd5b600960008473ffffffffffffffffffffffffffffffffffffffff1673ffffffffffffffffffffffffffffffffffffffff16815260200190815260200160002060405180606001604052808681526020018573ffffffffffffffffffffffffffffffffffffffff16815260200184848080601f016020809104026020016040519081016040528093929190818152602001838380828437600081840152601f19601f8201169050808301925050505050505081525090806001815401808255809150506001900390600052602060002090600302016000909190919091506000820151816000015560208201518160010160006101000a81548173ffffffffffffffffffffffffffffffffffffffff021916908373ffffffffffffffffffffffffffffffffffffffff1602179055506040820151816002019081610c7e9190614373565b5050507f6359ce4d40f5eda2145551a81ee172f7f579040c9ff061c9510d86aca8ac31b184848484604051610cb69493929190614552565b60405180910390a150505050565b6000610cce6121f9565b90508073ffffffffffffffffffffffffffffffffffffffff168673ffffffffffffffffffffffffffffffffffffffff1614158015610d135750610d118682611ab7565b155b15610d575780866040517fe237d922000000000000000000000000000000000000000000000000000000008152600401610d4e929190614592565b60405180910390fd5b610d648686868686612201565b505050505050565b610d7582610a78565b610d7e816122f9565b610d88838361230d565b50505050565b610d966121f9565b73ffffffffffffffffffffffffffffffffffffffff168173ffffffffffffffffffffffffffffffffffffffff1614610dfa576040517f6697b23200000000000000000000000000000000000000000000000000000000815260040160405180910390fd5b610e0482826123fe565b505050565b60056020528160005260406000208181548110610e2557600080fd5b906000526020600020906005020160009150915050806000015490806001018054610e4f9061409b565b80601f0160208091040260200160405190810160405280929190818152602001828054610e7b9061409b565b8015610ec85780601f10610e9d57610100808354040283529160200191610ec8565b820191906000526020600020905b815481529060010190602001808311610eab57829003601f168201915b505050505090806002018054610edd9061409b565b80601f0160208091040260200160405190810160405280929190818152602001828054610f099061409b565b8015610f565780601f10610f2b57610100808354040283529160200191610f56565b820191906000526020600020905b815481529060010190602001808311610f3957829003601f168201915b505050505090806003018054610f6b9061409b565b80601f0160208091040260200160405190810160405280929190818152602001828054610f979061409b565b8015610fe45780601f10610fb957610100808354040283529160200191610fe4565b820191906000526020600020905b815481529060010190602001808311610fc757829003601f168201915b505050505090806004018054610ff99061409b565b80601f01602080910402602001604051908101604052809291908181526020018280546110259061409b565b80156110725780601f1061104757610100808354040283529160200191611072565b820191906000526020600020905b81548152906001019060200180831161105557829003601f168201915b5050505050905085565b6000611088338861054a565b146110c8576040517f08c379a00000000000000000000000000000000000000000000000000000000081526004016110bf9061462d565b60405180910390fd5b60006110e0336001896110db919061464d565b61054a565b14611120576040517f08c379a0000000000000000000000000000000000000000000000000000000008152600401611117906146f3565b60405180910390fd5b6007600087815260200190815260200160002060030160009054906101000a900473ffffffffffffffffffffffffffffffffffffffff1673ffffffffffffffffffffffffffffffffffffffff163373ffffffffffffffffffffffffffffffffffffffff16036111c4576040517f08c379a00000000000000000000000000000000000000000000000000000000081526004016111bb9061475f565b60405180910390fd5b600860008673ffffffffffffffffffffffffffffffffffffffff1673ffffffffffffffffffffffffffffffffffffffff16815260200190815260200160002060405180608001604052808881526020013373ffffffffffffffffffffffffffffffffffffffff16815260200186868080601f016020809104026020016040519081016040528093929190818152602001838380828437600081840152601f19601f82011690508083019250505050505050815260200184848080601f016020809104026020016040519081016040528093929190818152602001838380828437600081840152601f19601f8201169050808301925050505050505081525090806001815401808255809150506001900390600052602060002090600402016000909190919091506000820151816000015560208201518160010160006101000a81548173ffffffffffffffffffffffffffffffffffffffff021916908373ffffffffffffffffffffffffffffffffffffffff16021790555060408201518160020190816113519190614373565b5060608201518160030190816113679190614373565b5050507f27933379a052f5f5557bc5c1a42ca57f428f867f050e2a69d2100056ee0168058633868686866040516113a39695949392919061477f565b60405180910390a1505050505050565b606081518351146113ff57815183516040517f5b0599910000000000000000000000000000000000000000000000000000000081526004016113f69291906147d6565b60405180910390fd5b6000835167ffffffffffffffff81111561141c5761141b61352a565b5b60405190808252806020026020018201604052801561144a5781602001602082028036833780820191505090505b50905060005b84518110156114b15761148761146f82876124f090919063ffffffff16565b611482838761250490919063ffffffff16565b61054a565b82828151811061149a576114996147ff565b5b602002602001018181525050806001019050611450565b508091505092915050565b600080600084815260200190815260200160002060000160008373ffffffffffffffffffffffffffffffffffffffff1673ffffffffffffffffffffffffffffffffffffffff16815260200190815260200160002060009054906101000a900460ff16905092915050565b6115423360008b604051806020016040528060008152506120b9565b600560003373ffffffffffffffffffffffffffffffffffffffff1673ffffffffffffffffffffffffffffffffffffffff1681526020019081526020016000206040518060a0016040528060045481526020018a8a8080601f016020809104026020016040519081016040528093929190818152602001838380828437600081840152601f19601f82011690508083019250505050505050815260200188888080601f016020809104026020016040519081016040528093929190818152602001838380828437600081840152601f19601f82011690508083019250505050505050815260200186868080601f016020809104026020016040519081016040528093929190818152602001838380828437600081840152601f19601f82011690508083019250505050505050815260200184848080601f016020809104026020016040519081016040528093929190818152602001838380828437600081840152601f19601f8201169050808301925050505050505081525090806001815401808255809150506001900390600052602060002090600502016000909190919091506000820151816000015560208201518160010190816117029190614373565b5060408201518160020190816117189190614373565b50606082015181600301908161172e9190614373565b5060808201518160040190816117449190614373565b505050604051806080016040528060045481526020018b81526020018a81526020013373ffffffffffffffffffffffffffffffffffffffff1681525060076000600454815260200190815260200160002060008201518160000155602082015181600101556040820151816002015560608201518160030160006101000a81548173ffffffffffffffffffffffffffffffffffffffff021916908373ffffffffffffffffffffffffffffffffffffffff1602179055509050507faa6bef3bad617a58e34dd4e641462c367b1061588eb73a8ffed2032dd526c5676004548989898989898989336040516118409a9998979695949392919061482e565b60405180910390a17fecbe31ac198500ae06291c26441a2e9514f84b27c5b8a28b580e54dccc4d746b6004548b8b3360405161187f9493929190613d2c565b60405180910390a16004600081548092919061189a906148b3565b919050555050505050505050505050565b600860205281600052604060002081815481106118c757600080fd5b9060005260206000209060040201600091509150508060000154908060010160009054906101000a900473ffffffffffffffffffffffffffffffffffffffff16908060020180546119179061409b565b80601f01602080910402602001604051908101604052809291908181526020018280546119439061409b565b80156119905780601f1061196557610100808354040283529160200191611990565b820191906000526020600020905b81548152906001019060200180831161197357829003601f168201915b5050505050908060030180546119a59061409b565b80601f01602080910402602001604051908101604052809291908181526020018280546119d19061409b565b8015611a1e5780601f106119f357610100808354040283529160200191611a1e565b820191906000526020600020905b815481529060010190602001808311611a0157829003601f168201915b5050505050905084565b6000801b81565b611a41611a3a6121f9565b8383612518565b5050565b60076020528060005260406000206000915090508060000154908060010154908060020154908060030160009054906101000a900473ffffffffffffffffffffffffffffffffffffffff16905084565b611a9e82610a78565b611aa7816122f9565b611ab183836123fe565b50505050565b6000600260008473ffffffffffffffffffffffffffffffffffffffff1673ffffffffffffffffffffffffffffffffffffffff16815260200190815260200160002060008373ffffffffffffffffffffffffffffffffffffffff1673ffffffffffffffffffffffffffffffffffffffff16815260200190815260200160002060009054906101000a900460ff16905092915050565b60096020528160005260406000208181548110611b6757600080fd5b9060005260206000209060030201600091509150508060000154908060010160009054906101000a900473ffffffffffffffffffffffffffffffffffffffff1690806002018054611bb79061409b565b80601f0160208091040260200160405190810160405280929190818152602001828054611be39061409b565b8015611c305780601f10611c0557610100808354040283529160200191611c30565b820191906000526020600020905b815481529060010190602001808311611c1357829003601f168201915b5050505050905083565b6060600560008373ffffffffffffffffffffffffffffffffffffffff1673ffffffffffffffffffffffffffffffffffffffff168152602001908152602001600020805480602002602001604051908101604052809291908181526020016000905b82821015611f1f57838290600052602060002090600502016040518060a001604052908160008201548152602001600182018054611cd89061409b565b80601f0160208091040260200160405190810160405280929190818152602001828054611d049061409b565b8015611d515780601f10611d2657610100808354040283529160200191611d51565b820191906000526020600020905b815481529060010190602001808311611d3457829003601f168201915b50505050508152602001600282018054611d6a9061409b565b80601f0160208091040260200160405190810160405280929190818152602001828054611d969061409b565b8015611de35780601f10611db857610100808354040283529160200191611de3565b820191906000526020600020905b815481529060010190602001808311611dc657829003601f168201915b50505050508152602001600382018054611dfc9061409b565b80601f0160208091040260200160405190810160405280929190818152602001828054611e289061409b565b8015611e755780601f10611e4a57610100808354040283529160200191611e75565b820191906000526020600020905b815481529060010190602001808311611e5857829003601f168201915b50505050508152602001600482018054611e8e9061409b565b80601f0160208091040260200160405190810160405280929190818152602001828054611eba9061409b565b8015611f075780601f10611edc57610100808354040283529160200191611f07565b820191906000526020600020905b815481529060010190602001808311611eea57829003601f168201915b50505050508152505081526020019060010190611c9b565b505050509050919050565b6000611f346121f9565b90508073ffffffffffffffffffffffffffffffffffffffff168673ffffffffffffffffffffffffffffffffffffffff1614158015611f795750611f778682611ab7565b155b15611fbd5780866040517fe237d922000000000000000000000000000000000000000000000000000000008152600401611fb4929190614592565b60405180910390fd5b611fca8686868686612688565b505050505050565b600081565b60007fd9b67a26000000000000000000000000000000000000000000000000000000007bffffffffffffffffffffffffffffffffffffffffffffffffffffffff1916827bffffffffffffffffffffffffffffffffffffffffffffffffffffffff191614806120a257507f0e89341c000000000000000000000000000000000000000000000000000000007bffffffffffffffffffffffffffffffffffffffffffffffffffffffff1916827bffffffffffffffffffffffffffffffffffffffffffffffffffffffff1916145b806120b257506120b182612793565b5b9050919050565b600073ffffffffffffffffffffffffffffffffffffffff168473ffffffffffffffffffffffffffffffffffffffff160361212b5760006040517f57f447ce00000000000000000000000000000000000000000000000000000000815260040161212291906148fb565b60405180910390fd5b600080612138858561280d565b9150915061214a60008784848761283d565b505050505050565b600073ffffffffffffffffffffffffffffffffffffffff168373ffffffffffffffffffffffffffffffffffffffff16036121c45760006040517f01a835140000000000000000000000000000000000000000000000000000000081526004016121bb91906148fb565b60405180910390fd5b6000806121d1848461280d565b915091506121f285600084846040518060200160405280600081525061283d565b5050505050565b600033905090565b600073ffffffffffffffffffffffffffffffffffffffff168473ffffffffffffffffffffffffffffffffffffffff16036122735760006040517f57f447ce00000000000000000000000000000000000000000000000000000000815260040161226a91906148fb565b60405180910390fd5b600073ffffffffffffffffffffffffffffffffffffffff168573ffffffffffffffffffffffffffffffffffffffff16036122e55760006040517f01a835140000000000000000000000000000000000000000000000000000000081526004016122dc91906148fb565b60405180910390fd5b6122f2858585858561283d565b5050505050565b61230a816123056121f9565b6128ef565b50565b600061231983836114bc565b6123f357600160008085815260200190815260200160002060000160008473ffffffffffffffffffffffffffffffffffffffff1673ffffffffffffffffffffffffffffffffffffffff16815260200190815260200160002060006101000a81548160ff0219169083151502179055506123906121f9565b73ffffffffffffffffffffffffffffffffffffffff168273ffffffffffffffffffffffffffffffffffffffff16847f2f8788117e7eff1d82e926ec794901d17c78024a50270940304540a733656f0d60405160405180910390a4600190506123f8565b600090505b92915050565b600061240a83836114bc565b156124e557600080600085815260200190815260200160002060000160008473ffffffffffffffffffffffffffffffffffffffff1673ffffffffffffffffffffffffffffffffffffffff16815260200190815260200160002060006101000a81548160ff0219169083151502179055506124826121f9565b73ffffffffffffffffffffffffffffffffffffffff168273ffffffffffffffffffffffffffffffffffffffff16847ff6391f5c32d9c69d2a47ea670b442974b53935d1edc7fd64eb21e047a839171b60405160405180910390a4600190506124ea565b600090505b92915050565b600060208202602084010151905092915050565b600060208202602084010151905092915050565b600073ffffffffffffffffffffffffffffffffffffffff168273ffffffffffffffffffffffffffffffffffffffff160361258a5760006040517fced3e10000000000000000000000000000000000000000000000000000000000815260040161258191906148fb565b60405180910390fd5b80600260008573ffffffffffffffffffffffffffffffffffffffff1673ffffffffffffffffffffffffffffffffffffffff16815260200190815260200160002060008473ffffffffffffffffffffffffffffffffffffffff1673ffffffffffffffffffffffffffffffffffffffff16815260200190815260200160002060006101000a81548160ff0219169083151502179055508173ffffffffffffffffffffffffffffffffffffffff168373ffffffffffffffffffffffffffffffffffffffff167f17307eab39ab6107e8899845ad3d59bd9653f200f220920489ca2b5937696c318360405161267b919061335a565b60405180910390a3505050565b600073ffffffffffffffffffffffffffffffffffffffff168473ffffffffffffffffffffffffffffffffffffffff16036126fa5760006040517f57f447ce0000000000000000000000000000000000000000000000000000000081526004016126f191906148fb565b60405180910390fd5b600073ffffffffffffffffffffffffffffffffffffffff168573ffffffffffffffffffffffffffffffffffffffff160361276c5760006040517f01a8351400000000000000000000000000000000000000000000000000000000815260040161276391906148fb565b60405180910390fd5b600080612779858561280d565b9150915061278a878784848761283d565b50505050505050565b60007f7965db0b000000000000000000000000000000000000000000000000000000007bffffffffffffffffffffffffffffffffffffffffffffffffffffffff1916827bffffffffffffffffffffffffffffffffffffffffffffffffffffffff19161480612806575061280582612940565b5b9050919050565b60608060405191506001825283602083015260408201905060018152826020820152604081016040529250929050565b612849858585856129aa565b600073ffffffffffffffffffffffffffffffffffffffff168473ffffffffffffffffffffffffffffffffffffffff16146128e85760006128876121f9565b905060018451036128d75760006128a860008661250490919063ffffffff16565b905060006128c060008661250490919063ffffffff16565b90506128d0838989858589612d55565b50506128e6565b6128e5818787878787612f09565b5b505b5050505050565b6128f982826114bc565b61293c5780826040517fe2517d3f000000000000000000000000000000000000000000000000000000008152600401612933929190614916565b60405180910390fd5b5050565b60007f01ffc9a7000000000000000000000000000000000000000000000000000000007bffffffffffffffffffffffffffffffffffffffffffffffffffffffff1916827bffffffffffffffffffffffffffffffffffffffffffffffffffffffff1916149050919050565b80518251146129f457815181516040517f5b0599910000000000000000000000000000000000000000000000000000000081526004016129eb9291906147d6565b60405180910390fd5b60006129fe6121f9565b905060005b8351811015612c10576000612a21828661250490919063ffffffff16565b90506000612a38838661250490919063ffffffff16565b9050600073ffffffffffffffffffffffffffffffffffffffff168873ffffffffffffffffffffffffffffffffffffffff1614612b675760006001600084815260200190815260200160002060008a73ffffffffffffffffffffffffffffffffffffffff1673ffffffffffffffffffffffffffffffffffffffff16815260200190815260200160002054905081811015612b0e57888183856040517f03dee4c5000000000000000000000000000000000000000000000000000000008152600401612b05949392919061493f565b60405180910390fd5b8181036001600085815260200190815260200160002060008b73ffffffffffffffffffffffffffffffffffffffff1673ffffffffffffffffffffffffffffffffffffffff16815260200190815260200160002081905550505b600073ffffffffffffffffffffffffffffffffffffffff168773ffffffffffffffffffffffffffffffffffffffff1614612c0357806001600084815260200190815260200160002060008973ffffffffffffffffffffffffffffffffffffffff1673ffffffffffffffffffffffffffffffffffffffff1681526020019081526020016000206000828254612bfb919061464d565b925050819055505b5050806001019050612a03565b506001835103612ccf576000612c3060008561250490919063ffffffff16565b90506000612c4860008561250490919063ffffffff16565b90508573ffffffffffffffffffffffffffffffffffffffff168773ffffffffffffffffffffffffffffffffffffffff168473ffffffffffffffffffffffffffffffffffffffff167fc3d58168c5ae7397731d063d5bbf3d657854427343f4c083240f7aacaa2d0f628585604051612cc09291906147d6565b60405180910390a45050612d4e565b8373ffffffffffffffffffffffffffffffffffffffff168573ffffffffffffffffffffffffffffffffffffffff168273ffffffffffffffffffffffffffffffffffffffff167f4a39dc06d4c0dbc64b70af90fd698a233a518aa5d07e595d983b8c0526c8f7fb8686604051612d45929190614984565b60405180910390a45b5050505050565b60008473ffffffffffffffffffffffffffffffffffffffff163b1115612f01578373ffffffffffffffffffffffffffffffffffffffff1663f23a6e6187878686866040518663ffffffff1660e01b8152600401612db6959493929190614a10565b6020604051808303816000875af1925050508015612df257506040513d601f19601f82011682018060405250810190612def9190614a7f565b60015b612e76573d8060008114612e22576040519150601f19603f3d011682016040523d82523d6000602084013e612e27565b606091505b506000815103612e6e57846040517f57f447ce000000000000000000000000000000000000000000000000000000008152600401612e6591906148fb565b60405180910390fd5b805181602001fd5b63f23a6e6160e01b7bffffffffffffffffffffffffffffffffffffffffffffffffffffffff1916817bffffffffffffffffffffffffffffffffffffffffffffffffffffffff191614612eff57846040517f57f447ce000000000000000000000000000000000000000000000000000000008152600401612ef691906148fb565b60405180910390fd5b505b505050505050565b60008473ffffffffffffffffffffffffffffffffffffffff163b11156130b5578373ffffffffffffffffffffffffffffffffffffffff1663bc197c8187878686866040518663ffffffff1660e01b8152600401612f6a959493929190614aac565b6020604051808303816000875af1925050508015612fa657506040513d601f19601f82011682018060405250810190612fa39190614a7f565b60015b61302a573d8060008114612fd6576040519150601f19603f3d011682016040523d82523d6000602084013e612fdb565b606091505b50600081510361302257846040517f57f447ce00000000000000000000000000000000000000000000000000000000815260040161301991906148fb565b60405180910390fd5b805181602001fd5b63bc197c8160e01b7bffffffffffffffffffffffffffffffffffffffffffffffffffffffff1916817bffffffffffffffffffffffffffffffffffffffffffffffffffffffff1916146130b357846040517f57f447ce0000000000000000000000000000000000000000000000000000000081526004016130aa91906148fb565b60405180910390fd5b505b505050505050565b6000604051905090565b600080fd5b600080fd5b600073ffffffffffffffffffffffffffffffffffffffff82169050919050565b60006130fc826130d1565b9050919050565b61310c816130f1565b811461311757600080fd5b50565b60008135905061312981613103565b92915050565b6000819050919050565b6131428161312f565b811461314d57600080fd5b50565b60008135905061315f81613139565b92915050565b6000806040838503121561317c5761317b6130c7565b5b600061318a8582860161311a565b925050602061319b85828601613150565b9150509250929050565b6131ae8161312f565b82525050565b60006020820190506131c960008301846131a5565b92915050565b600081519050919050565b600082825260208201905092915050565b60005b838110156132095780820151818401526020810190506131ee565b60008484015250505050565b6000601f19601f8301169050919050565b6000613231826131cf565b61323b81856131da565b935061324b8185602086016131eb565b61325481613215565b840191505092915050565b613268816130f1565b82525050565b600060808201905061328360008301876131a5565b61329060208301866131a5565b81810360408301526132a28185613226565b90506132b1606083018461325f565b95945050505050565b60007fffffffff0000000000000000000000000000000000000000000000000000000082169050919050565b6132ef816132ba565b81146132fa57600080fd5b50565b60008135905061330c816132e6565b92915050565b600060208284031215613328576133276130c7565b5b6000613336848285016132fd565b91505092915050565b60008115159050919050565b6133548161333f565b82525050565b600060208201905061336f600083018461334b565b92915050565b60006020828403121561338b5761338a6130c7565b5b600061339984828501613150565b91505092915050565b600060208201905081810360008301526133bc8184613226565b905092915050565b600080fd5b600080fd5b600080fd5b60008083601f8401126133e9576133e86133c4565b5b8235905067ffffffffffffffff811115613406576134056133c9565b5b602083019150836001820283011115613422576134216133ce565b5b9250929050565b60008060008060608587031215613443576134426130c7565b5b600061345187828801613150565b94505060206134628782880161311a565b935050604085013567ffffffffffffffff811115613483576134826130cc565b5b61348f878288016133d3565b925092505092959194509250565b6000819050919050565b6134b08161349d565b81146134bb57600080fd5b50565b6000813590506134cd816134a7565b92915050565b6000602082840312156134e9576134e86130c7565b5b60006134f7848285016134be565b91505092915050565b6135098161349d565b82525050565b60006020820190506135246000830184613500565b92915050565b7f4e487b7100000000000000000000000000000000000000000000000000000000600052604160045260246000fd5b61356282613215565b810181811067ffffffffffffffff821117156135815761358061352a565b5b80604052505050565b60006135946130bd565b90506135a08282613559565b919050565b600067ffffffffffffffff8211156135c0576135bf61352a565b5b602082029050602081019050919050565b60006135e46135df846135a5565b61358a565b90508083825260208201905060208402830185811115613607576136066133ce565b5b835b81811015613630578061361c8882613150565b845260208401935050602081019050613609565b5050509392505050565b600082601f83011261364f5761364e6133c4565b5b813561365f8482602086016135d1565b91505092915050565b600080fd5b600067ffffffffffffffff8211156136885761368761352a565b5b61369182613215565b9050602081019050919050565b82818337600083830152505050565b60006136c06136bb8461366d565b61358a565b9050828152602081018484840111156136dc576136db613668565b5b6136e784828561369e565b509392505050565b600082601f830112613704576137036133c4565b5b81356137148482602086016136ad565b91505092915050565b600080600080600060a08688031215613739576137386130c7565b5b60006137478882890161311a565b95505060206137588882890161311a565b945050604086013567ffffffffffffffff811115613779576137786130cc565b5b6137858882890161363a565b935050606086013567ffffffffffffffff8111156137a6576137a56130cc565b5b6137b28882890161363a565b925050608086013567ffffffffffffffff8111156137d3576137d26130cc565b5b6137df888289016136ef565b9150509295509295909350565b60008060408385031215613803576138026130c7565b5b6000613811858286016134be565b92505060206138228582860161311a565b9150509250929050565b600060a08201905061384160008301886131a5565b81810360208301526138538187613226565b905081810360408301526138678186613226565b9050818103606083015261387b8185613226565b9050818103608083015261388f8184613226565b90509695505050505050565b600080600080600080608087890312156138b8576138b76130c7565b5b60006138c689828a01613150565b96505060206138d789828a0161311a565b955050604087013567ffffffffffffffff8111156138f8576138f76130cc565b5b61390489828a016133d3565b9450945050606087013567ffffffffffffffff811115613927576139266130cc565b5b61393389828a016133d3565b92509250509295509295509295565b600067ffffffffffffffff82111561395d5761395c61352a565b5b602082029050602081019050919050565b600061398161397c84613942565b61358a565b905080838252602082019050602084028301858111156139a4576139a36133ce565b5b835b818110156139cd57806139b9888261311a565b8452602084019350506020810190506139a6565b5050509392505050565b600082601f8301126139ec576139eb6133c4565b5b81356139fc84826020860161396e565b91505092915050565b60008060408385031215613a1c57613a1b6130c7565b5b600083013567ffffffffffffffff811115613a3a57613a396130cc565b5b613a46858286016139d7565b925050602083013567ffffffffffffffff811115613a6757613a666130cc565b5b613a738582860161363a565b9150509250929050565b600081519050919050565b600082825260208201905092915050565b6000819050602082019050919050565b613ab28161312f565b82525050565b6000613ac48383613aa9565b60208301905092915050565b6000602082019050919050565b6000613ae882613a7d565b613af28185613a88565b9350613afd83613a99565b8060005b83811015613b2e578151613b158882613ab8565b9750613b2083613ad0565b925050600181019050613b01565b5085935050505092915050565b60006020820190508181036000830152613b558184613add565b905092915050565b60008060008060008060008060008060c08b8d031215613b8057613b7f6130c7565b5b6000613b8e8d828e01613150565b9a50506020613b9f8d828e01613150565b99505060408b013567ffffffffffffffff811115613bc057613bbf6130cc565b5b613bcc8d828e016133d3565b985098505060608b013567ffffffffffffffff811115613bef57613bee6130cc565b5b613bfb8d828e016133d3565b965096505060808b013567ffffffffffffffff811115613c1e57613c1d6130cc565b5b613c2a8d828e016133d3565b945094505060a08b013567ffffffffffffffff811115613c4d57613c4c6130cc565b5b613c598d828e016133d3565b92509250509295989b9194979a5092959850565b6000608082019050613c8260008301876131a5565b613c8f602083018661325f565b8181036040830152613ca18185613226565b90508181036060830152613cb58184613226565b905095945050505050565b613cc98161333f565b8114613cd457600080fd5b50565b600081359050613ce681613cc0565b92915050565b60008060408385031215613d0357613d026130c7565b5b6000613d118582860161311a565b9250506020613d2285828601613cd7565b9150509250929050565b6000608082019050613d4160008301876131a5565b613d4e60208301866131a5565b613d5b60408301856131a5565b613d68606083018461325f565b95945050505050565b60008060408385031215613d8857613d876130c7565b5b6000613d968582860161311a565b9250506020613da78582860161311a565b9150509250929050565b6000606082019050613dc660008301866131a5565b613dd3602083018561325f565b8181036040830152613de58184613226565b9050949350505050565b600060208284031215613e0557613e046130c7565b5b6000613e138482850161311a565b91505092915050565b600081519050919050565b600082825260208201905092915050565b6000819050602082019050919050565b600082825260208201905092915050565b6000613e64826131cf565b613e6e8185613e48565b9350613e7e8185602086016131eb565b613e8781613215565b840191505092915050565b600060a083016000830151613eaa6000860182613aa9565b5060208301518482036020860152613ec28282613e59565b91505060408301518482036040860152613edc8282613e59565b91505060608301518482036060860152613ef68282613e59565b91505060808301518482036080860152613f108282613e59565b9150508091505092915050565b6000613f298383613e92565b905092915050565b6000602082019050919050565b6000613f4982613e1c565b613f538185613e27565b935083602082028501613f6585613e38565b8060005b85811015613fa15784840389528151613f828582613f1d565b9450613f8d83613f31565b925060208a01995050600181019050613f69565b50829750879550505050505092915050565b60006020820190508181036000830152613fcd8184613f3e565b905092915050565b600080600080600060a08688031215613ff157613ff06130c7565b5b6000613fff8882890161311a565b95505060206140108882890161311a565b945050604061402188828901613150565b935050606061403288828901613150565b925050608086013567ffffffffffffffff811115614053576140526130cc565b5b61405f888289016136ef565b9150509295509295909350565b7f4e487b7100000000000000000000000000000000000000000000000000000000600052602260045260246000fd5b600060028204905060018216806140b357607f821691505b6020821081036140c6576140c561406c565b5b50919050565b7f416c72656164792070617274696369706174656420696e207375727665792e00600082015250565b6000614102601f836131da565b915061410d826140cc565b602082019050919050565b60006020820190508181036000830152614131816140f5565b9050919050565b7f4e487b7100000000000000000000000000000000000000000000000000000000600052601260045260246000fd5b7f4e487b7100000000000000000000000000000000000000000000000000000000600052601160045260246000fd5b60006141a18261312f565b91506141ac8361312f565b9250826141bc576141bb614138565b5b828204905092915050565b60008190508160005260206000209050919050565b60006020601f8301049050919050565b600082821b905092915050565b6000600883026142297fffffffffffffffffffffffffffffffffffffffffffffffffffffffffffffffff826141ec565b61423386836141ec565b95508019841693508086168417925050509392505050565b6000819050919050565b600061427061426b6142668461312f565b61424b565b61312f565b9050919050565b6000819050919050565b61428a83614255565b61429e61429682614277565b8484546141f9565b825550505050565b600090565b6142b36142a6565b6142be818484614281565b505050565b5b818110156142e2576142d76000826142ab565b6001810190506142c4565b5050565b601f821115614327576142f8816141c7565b614301846141dc565b81016020851015614310578190505b61432461431c856141dc565b8301826142c3565b50505b505050565b600082821c905092915050565b600061434a6000198460080261432c565b1980831691505092915050565b60006143638383614339565b9150826002028217905092915050565b61437c826131cf565b67ffffffffffffffff8111156143955761439461352a565b5b61439f825461409b565b6143aa8282856142e6565b600060209050601f8311600181146143dd57600084156143cb578287015190505b6143d58582614357565b86555061443d565b601f1984166143eb866141c7565b60005b82811015614413578489015182556001820191506020850194506020810190506143ee565b86831015614430578489015161442c601f891682614339565b8355505b6001600288020188555050505b505050505050565b600061445183856131da565b935061445e83858461369e565b61446783613215565b840190509392505050565b600060808201905061448760008301886131a5565b61449460208301876131a5565b81810360408301526144a7818587614445565b90506144b6606083018461325f565b9695505050505050565b7f4e6f74205375727665792063726561746f722c2063616e277420617070726f7660008201527f6500000000000000000000000000000000000000000000000000000000000000602082015250565b600061451c6021836131da565b9150614527826144c0565b604082019050919050565b6000602082019050818103600083015261454b8161450f565b9050919050565b600060608201905061456760008301876131a5565b614574602083018661325f565b8181036040830152614587818486614445565b905095945050505050565b60006040820190506145a7600083018561325f565b6145b4602083018461325f565b9392505050565b7f4475706c696361746520726571756573742c20617070726f76616c206f75747360008201527f74616e64696e6700000000000000000000000000000000000000000000000000602082015250565b60006146176027836131da565b9150614622826145bb565b604082019050919050565b600060208201905081810360008301526146468161460a565b9050919050565b60006146588261312f565b91506146638361312f565b925082820190508082111561467b5761467a614167565b5b92915050565b7f496e76616c696420726571756573742c20737572766579207265706c79206f7560008201527f747374616e64696e670000000000000000000000000000000000000000000000602082015250565b60006146dd6029836131da565b91506146e882614681565b604082019050919050565b6000602082019050818103600083015261470c816146d0565b9050919050565b7f43616e277420726573706f6e6420746f20796f7572206f776e20737572766579600082015250565b60006147496020836131da565b915061475482614713565b602082019050919050565b600060208201905081810360008301526147788161473c565b9050919050565b600060808201905061479460008301896131a5565b6147a1602083018861325f565b81810360408301526147b4818688614445565b905081810360608301526147c9818486614445565b9050979650505050505050565b60006040820190506147eb60008301856131a5565b6147f860208301846131a5565b9392505050565b7f4e487b7100000000000000000000000000000000000000000000000000000000600052603260045260246000fd5b600060c082019050614843600083018d6131a5565b8181036020830152614856818b8d614445565b9050818103604083015261486b81898b614445565b90508181036060830152614880818789614445565b90508181036080830152614895818587614445565b90506148a460a083018461325f565b9b9a5050505050505050505050565b60006148be8261312f565b91507fffffffffffffffffffffffffffffffffffffffffffffffffffffffffffffffff82036148f0576148ef614167565b5b600182019050919050565b6000602082019050614910600083018461325f565b92915050565b600060408201905061492b600083018561325f565b6149386020830184613500565b9392505050565b6000608082019050614954600083018761325f565b61496160208301866131a5565b61496e60408301856131a5565b61497b60608301846131a5565b95945050505050565b6000604082019050818103600083015261499e8185613add565b905081810360208301526149b28184613add565b90509392505050565b600081519050919050565b600082825260208201905092915050565b60006149e2826149bb565b6149ec81856149c6565b93506149fc8185602086016131eb565b614a0581613215565b840191505092915050565b600060a082019050614a25600083018861325f565b614a32602083018761325f565b614a3f60408301866131a5565b614a4c60608301856131a5565b8181036080830152614a5e81846149d7565b90509695505050505050565b600081519050614a79816132e6565b92915050565b600060208284031215614a9557614a946130c7565b5b6000614aa384828501614a6a565b91505092915050565b600060a082019050614ac1600083018861325f565b614ace602083018761325f565b8181036040830152614ae08186613add565b90508181036060830152614af48185613add565b90508181036080830152614b0881846149d7565b9050969550505050505056fea2646970667358221220a2b74981dab892d98e10580757a7ca63fe4b2ef5ff54c60594da106ad4e5c57d64736f6c634300081b0033",
  "linkReferences": {},
  "deployedLinkReferences": {}
}